{"abi":[{"type":"function","name":"exerciseEquityCompensation","inputs":[{"name":"equity_comp_security_id","type":"bytes16","internalType":"bytes16"},{"name":"resulting_stock_security_id","type":"bytes16","internalType":"bytes16"},{"name":"quantity","type":"uint256","internalType":"uint256"}],"outputs":[],"stateMutability":"nonpayable"},{"type":"function","name":"getPosition","inputs":[{"name":"securityId","type":"bytes16","internalType":"bytes16"}],"outputs":[{"name":"","type":"tuple","internalType":"struct EquityCompensationActivePosition","components":[{"name":"stakeholder_id","type":"bytes16","internalType":"bytes16"},{"name":"quantity","type":"uint256","internalType":"uint256"},{"name":"timestamp","type":"uint40","internalType":"uint40"},{"name":"stock_class_id","type":"bytes16","internalType":"bytes16"},{"name":"stock_plan_id","type":"bytes16","internalType":"bytes16"}]}],"stateMutability":"view"},{"type":"function","name":"issueEquityCompensation","inputs":[{"name":"params","type":"tuple","internalType":"struct EquityCompensationIssuanceParams","components":[{"name":"stakeholder_id","type":"bytes16","internalType":"bytes16"},{"name":"stock_class_id","type":"bytes16","internalType":"bytes16"},{"name":"stock_plan_id","type":"bytes16","internalType":"bytes16"},{"name":"quantity","type":"uint256","internalType":"uint256"},{"name":"security_id","type":"bytes16","internalType":"bytes16"},{"name":"compensation_type","type":"string","internalType":"string"},{"name":"exercise_price","type":"uint256","internalType":"uint256"},{"name":"base_price","type":"uint256","internalType":"uint256"},{"name":"expiration_date","type":"string","internalType":"string"},{"name":"custom_id","type":"string","internalType":"string"},{"name":"termination_exercise_windows_mapping","type":"string","internalType":"string"},{"name":"security_law_exemptions_mapping","type":"string","internalType":"string"}]}],"outputs":[],"stateMutability":"nonpayable"},{"type":"event","name":"TxCreated","inputs":[{"name":"txType","type":"uint8","indexed":false,"internalType":"enum TxType"},{"name":"txData","type":"bytes","indexed":false,"internalType":"bytes"}],"anonymous":false},{"type":"error","name":"AccessControlUnauthorized","inputs":[{"name":"account","type":"address","internalType":"address"},{"name":"role","type":"bytes32","internalType":"bytes32"}]},{"type":"error","name":"AccessControlUnauthorizedOrInvestor","inputs":[{"name":"account","type":"address","internalType":"address"}]},{"type":"error","name":"InsufficientShares","inputs":[]},{"type":"error","name":"InvalidQuantity","inputs":[]},{"type":"error","name":"InvalidSecurity","inputs":[{"name":"security_id","type":"bytes16","internalType":"bytes16"}]},{"type":"error","name":"InvalidSecurityStakeholder","inputs":[{"name":"security_id","type":"bytes16","internalType":"bytes16"},{"name":"stakeholder_id","type":"bytes16","internalType":"bytes16"}]},{"type":"error","name":"InvalidStockClass","inputs":[{"name":"stock_class_id","type":"bytes16","internalType":"bytes16"}]},{"type":"error","name":"NoStakeholder","inputs":[{"name":"stakeholder_id","type":"bytes16","internalType":"bytes16"}]}],"bytecode":{"object":"0x608060405234801561001057600080fd5b50610eef806100206000396000f3fe608060405234801561001057600080fd5b50600436106100415760003560e01c80630d08aa0f1461004657806336285e99146100b55780636b5e3d22146100ca575b600080fd5b610059610054366004610b63565b6100dd565b6040516100ac919081516001600160801b031990811682526020808401519083015260408084015164ffffffffff1690830152606080840151821690830152608092830151169181019190915260a00190565b60405180910390f35b6100c86100c3366004610b85565b610244565b005b6100c86100d8366004610bc1565b61050c565b6040805160a0808201835260008083526020808401829052838501829052606080850183905260808086018490526001600160801b031988811685527f2031468f0c30f7087de4da9398818763b546d7f89935fa65485c24ff1df26c07845293879020875195860188528054821b85168652600181015493860193909352600283015464ffffffffff81169786019790975265010000000000909604861b83169084015260030154841b169281019290925290600080516020610ecf833981519152906101a9336109be565b806101e257503360009081527f5b8426ad6b46b2b80795b73723cafbcfb6f2e137b2c69c0c73ffc6754f1a64f5602052604090205460ff165b156101ee579392505050565b336000908152601983016020526040902054815160809190911b906001600160801b031980831691161461023c5760405163ad41016d60e01b81523360048201526024015b60405180910390fd5b509392505050565b600080516020610ecf83398151915261025c336109be565b6102a157604051633cea3dfb60e11b81523360048201527f97667070c54ef182b0f5858b034beac1b6f3089aa2d3188bb1e8929f4fa9b9296024820152604401610233565b6102b66102b16020840184610b63565b6109fb565b6102ce6102c96040840160208501610b63565b610a72565b6102db8260600135610ae5565b6040805160a08101909152806102f46020850185610b63565b6001600160801b0319168152602001836060013581526020014264ffffffffff16815260200183602001602081019061032d9190610b63565b6001600160801b031916815260200161034c6060850160408601610b63565b6001600160801b031916905260148201600061036e60a0860160808701610b63565b6001600160801b031990811682526020808301939093526040918201600090812085518154608091821c908516178255868601516001830155938601516002820180546060890151871c65010000000000026001600160a81b031990911664ffffffffff9093169290921791909117905594830151600390950180549590931c9490911693909317905560138301919061040a90850185610b63565b6001600160801b0319168152602081019190915260400160002061043460a0840160808501610b63565b8154600180820184556000938452602093849020600283040180546001600160801b03929093166010026101000a9182021990921660809390931c0291909117905561048290830183610b63565b60158201600061049860a0860160808701610b63565b6001600160801b0319166001600160801b031916815260200190815260200160002060006101000a8154816001600160801b03021916908360801c02179055506000826040516020016104eb9190610c73565b6040516020818303038152906040529050610507600b82610b09565b505050565b6001600160801b031983811660009081527f2031468f0c30f7087de4da9398818763b546d7f89935fa65485c24ff1df26c0760209081526040808320815160a0810183528154608090811b87168252600183015482860152600283015464ffffffffff811683860152650100000000009004811b87166060830152600390920154821b8616828201523385527f2031468f0c30f7087de4da9398818763b546d7f89935fa65485c24ff1df26c0c9093529220548151600080516020610ecf8339815191529492939190911b9182811691161461062357604051633cea3dfb60e11b81523360048201527fb165298935924f540e4181c03493a5d686c54a0aaeb3f6216de85b7ffbba77386024820152604401610233565b836000036106445760405163524f409b60e01b815260040160405180910390fd5b81602001516000036106755760405163236ddac760e11b81526001600160801b031987166004820152602401610233565b838260200151101561069a57604051633999656760e01b815260040160405180910390fd5b6001600160801b03198086166000908152600e85016020908152604091829020825160808082018552825480821b8716808452600160801b90910490911b909516928101929092526001810154928201929092526002909101546060820152906107235760405163236ddac760e11b81526001600160801b031987166004820152602401610233565b825181516001600160801b031990811691161461076a57825160405163e2adf63b60e01b81526001600160801b031980891660048301529091166024820152604401610233565b8481604001511461078e5760405163524f409b60e01b815260040160405180910390fd5b84836020015103610940576001600160801b031980881660009081526014860160209081526040808320805485168155600181018490556002810180546001600160a81b031916905560030180548516905560158801825280832080548516905586519093168252601387019052908120905b815481101561093957886001600160801b03191682828154811061082757610827610de6565b90600052602060002090600291828204019190066010029054906101000a900460801b6001600160801b03191603610927578154829061086990600190610e12565b8154811061087957610879610de6565b90600052602060002090600291828204019190066010029054906101000a900460801b8282815481106108ae576108ae610de6565b90600052602060002090600291828204019190066010026101000a8154816001600160801b03021916908360801c0217905550818054806108f1576108f1610e2b565b60008281526020902060026000199092019182040180546001600160801b03601060018516026101000a02191690559055610939565b8061093181610e41565b915050610801565b5050610974565b6001600160801b0319871660009081526014850160205260408120600101805487929061096e908490610e12565b90915550505b604080516001600160801b0319898116602083015288168183015260608082018890528251808303909101815260809091019091526109b4600e82610b09565b5050505050505050565b6001600160a01b031660009081527f20a65b27cef39f8cbee4f7fb947dec892749a5832be62c5137636d27b859f46d602052604090205460ff1690565b6001600160801b0319811660009081527f2031468f0c30f7087de4da9398818763b546d7f89935fa65485c24ff1df26bfb6020526040812054600080516020610ecf8339815191529103610a6e5760405163b4586dfb60e01b81526001600160801b031983166004820152602401610233565b5050565b6001600160801b0319811660009081527f2031468f0c30f7087de4da9398818763b546d7f89935fa65485c24ff1df26bfd6020526040812054600080516020610ecf8339815191529103610a6e57604051630b2b152360e21b81526001600160801b031983166004820152602401610233565b80600003610b065760405163524f409b60e01b815260040160405180910390fd5b50565b7f88aa35e399ceb8d6b2e810abb3df607c140128e7c089c428f212598bda6a7eb78282604051610b3a929190610e5a565b60405180910390a15050565b80356001600160801b031981168114610b5e57600080fd5b919050565b600060208284031215610b7557600080fd5b610b7e82610b46565b9392505050565b600060208284031215610b9757600080fd5b813567ffffffffffffffff811115610bae57600080fd5b82016101808185031215610b7e57600080fd5b600080600060608486031215610bd657600080fd5b610bdf84610b46565b9250610bed60208501610b46565b9150604084013590509250925092565b6000808335601e19843603018112610c1457600080fd5b830160208101925035905067ffffffffffffffff811115610c3457600080fd5b803603821315610c4357600080fd5b9250929050565b81835281816020850137506000828201602090810191909152601f909101601f19169091010190565b60208152610c9560208201610c8784610b46565b6001600160801b0319169052565b6000610ca360208401610b46565b6001600160801b03198116604084015250610cc060408401610b46565b6001600160801b0319811660608401525060608301356080830152610ce760808401610b46565b6001600160801b0319811660a084015250610d0560a0840184610bfd565b6101808060c0860152610d1d6101a086018385610c4a565b925060c086013560e0860152610100915060e086013582860152610d4382870187610bfd565b9250601f19610120818887030181890152610d5f868685610c4a565b9550610d6d818a018a610bfd565b9550925050610140818887030181890152610d89868685610c4a565b9550610d97818a018a610bfd565b9550925050610160818887030181890152610db3868685610c4a565b9550610dc1818a018a610bfd565b955092505080878603018388015250610ddb848483610c4a565b979650505050505050565b634e487b7160e01b600052603260045260246000fd5b634e487b7160e01b600052601160045260246000fd5b81810381811115610e2557610e25610dfc565b92915050565b634e487b7160e01b600052603160045260246000fd5b600060018201610e5357610e53610dfc565b5060010190565b6000600f8410610e7a57634e487b7160e01b600052602160045260246000fd5b8382526020604081840152835180604085015260005b81811015610eac57858101830151858201606001528201610e90565b506000606082860101526060601f19601f83011685010192505050939250505056fe2031468f0c30f7087de4da9398818763b546d7f89935fa65485c24ff1df26bf3","linkReferences":{}},"methodIdentifiers":{"exerciseEquityCompensation(bytes16,bytes16,uint256)":"6b5e3d22","getPosition(bytes16)":"0d08aa0f","issueEquityCompensation((bytes16,bytes16,bytes16,uint256,bytes16,string,uint256,uint256,string,string,string,string))":"36285e99"},"id":56}