{"abi":[{"type":"function","name":"addAdmin","inputs":[{"name":"addr","type":"address","internalType":"address"}],"outputs":[],"stateMutability":"nonpayable"},{"type":"function","name":"addOperator","inputs":[{"name":"addr","type":"address","internalType":"address"}],"outputs":[],"stateMutability":"nonpayable"},{"type":"function","name":"getRoleAdmin","inputs":[{"name":"role","type":"bytes32","internalType":"bytes32"}],"outputs":[{"name":"","type":"bytes32","internalType":"bytes32"}],"stateMutability":"view"},{"type":"function","name":"getRoleMember","inputs":[{"name":"role","type":"bytes32","internalType":"bytes32"},{"name":"index","type":"uint256","internalType":"uint256"}],"outputs":[{"name":"","type":"address","internalType":"address"}],"stateMutability":"view"},{"type":"function","name":"getRoleMemberCount","inputs":[{"name":"role","type":"bytes32","internalType":"bytes32"}],"outputs":[{"name":"","type":"uint256","internalType":"uint256"}],"stateMutability":"view"},{"type":"function","name":"grantRole","inputs":[{"name":"role","type":"bytes32","internalType":"bytes32"},{"name":"account","type":"address","internalType":"address"}],"outputs":[],"stateMutability":"nonpayable"},{"type":"function","name":"hasRole","inputs":[{"name":"role","type":"bytes32","internalType":"bytes32"},{"name":"account","type":"address","internalType":"address"}],"outputs":[{"name":"","type":"bool","internalType":"bool"}],"stateMutability":"view"},{"type":"function","name":"initialize","inputs":[{"name":"id","type":"bytes16","internalType":"bytes16"},{"name":"initial_shares_authorized","type":"uint256","internalType":"uint256"},{"name":"admin","type":"address","internalType":"address"}],"outputs":[],"stateMutability":"nonpayable"},{"type":"function","name":"removeAdmin","inputs":[{"name":"addr","type":"address","internalType":"address"}],"outputs":[],"stateMutability":"nonpayable"},{"type":"function","name":"removeOperator","inputs":[{"name":"addr","type":"address","internalType":"address"}],"outputs":[],"stateMutability":"nonpayable"},{"type":"function","name":"renounceRole","inputs":[{"name":"role","type":"bytes32","internalType":"bytes32"}],"outputs":[],"stateMutability":"nonpayable"},{"type":"function","name":"revokeRole","inputs":[{"name":"role","type":"bytes32","internalType":"bytes32"},{"name":"account","type":"address","internalType":"address"}],"outputs":[],"stateMutability":"nonpayable"},{"type":"event","name":"IssuerCreated","inputs":[{"name":"id","type":"bytes16","indexed":true,"internalType":"bytes16"}],"anonymous":false},{"type":"event","name":"RoleAdminChanged","inputs":[{"name":"role","type":"bytes32","indexed":true,"internalType":"bytes32"},{"name":"previousAdminRole","type":"bytes32","indexed":true,"internalType":"bytes32"},{"name":"newAdminRole","type":"bytes32","indexed":true,"internalType":"bytes32"}],"anonymous":false},{"type":"event","name":"RoleGranted","inputs":[{"name":"role","type":"bytes32","indexed":true,"internalType":"bytes32"},{"name":"account","type":"address","indexed":true,"internalType":"address"},{"name":"sender","type":"address","indexed":true,"internalType":"address"}],"anonymous":false},{"type":"event","name":"RoleRevoked","inputs":[{"name":"role","type":"bytes32","indexed":true,"internalType":"bytes32"},{"name":"account","type":"address","indexed":true,"internalType":"address"},{"name":"sender","type":"address","indexed":true,"internalType":"address"}],"anonymous":false},{"type":"error","name":"EnumerableSet__IndexOutOfBounds","inputs":[]},{"type":"error","name":"UintUtils__InsufficientPadding","inputs":[]}],"bytecode":{"object":"0x608060405234801561001057600080fd5b50610c70806100206000396000f3fe608060405234801561001057600080fd5b50600436106100b45760003560e01c80639010d07c116100715780639010d07c1461014057806391d148541461016b5780639870d7fe1461018e578063ac8a584a146101a1578063ca15c873146101b4578063d547741f146101c757600080fd5b80631785f53c146100b9578063248a9ca3146100ce5780632f2ff15d146100f4578063704802751461010757806389ee70c61461011a5780638bb9c5bf1461012d575b600080fd5b6100cc6100c7366004610a1d565b6101da565b005b6100e16100dc366004610a38565b610222565b6040519081526020015b60405180910390f35b6100cc610102366004610a51565b610233565b6100cc610115366004610a1d565b610254565b6100cc610128366004610a7d565b610290565b6100cc61013b366004610a38565b6103c2565b61015361014e366004610ac8565b6103cb565b6040516001600160a01b0390911681526020016100eb565b61017e610179366004610a51565b6103de565b60405190151581526020016100eb565b6100cc61019c366004610a1d565b6103ea565b6100cc6101af366004610a1d565b610438565b6100e16101c2366004610a38565b610486565b6100cc6101d5366004610a51565b610491565b6101e26104ad565b6102075760405162461bcd60e51b81526004016101fe90610aea565b60405180910390fd5b61021f600080516020610c50833981519152826104cc565b50565b600061022d8261052e565b92915050565b61023c8261052e565b61024581610550565b61024f838361055a565b505050565b61025c6104ad565b6102785760405162461bcd60e51b81526004016101fe90610aea565b61021f600080516020610c508339815191528261055a565b6102a8600080516020610c508339815191528261055a565b6102c0600080516020610c50833981519152806105bc565b6102f87f523a704056dcd17bcf83bed8b68c59416dac1119be77755efe3bde0a64e46e0c600080516020610c508339815191526105bc565b604080516060810182526001600160801b03198581168083526000602084018190529284018690527f0e91fe0d021f7d5ef0a4335f5a3541fa8bc83a3d8815ed2f3958ffe5ef1e9ed58054909216608088901c179091557f0e91fe0d021f7d5ef0a4335f5a3541fa8bc83a3d8815ed2f3958ffe5ef1e9ed68290557f0e91fe0d021f7d5ef0a4335f5a3541fa8bc83a3d8815ed2f3958ffe5ef1e9ed785905591517fb8cbde9f597f493a1b4d1c4db5fded9cd26293080750a0df6b7e7097f4b680dd9190a2505050565b61021f8161061c565b60006103d78383610626565b9392505050565b60006103d7838361064b565b6103f26104ad565b61040e5760405162461bcd60e51b81526004016101fe90610aea565b61021f7f523a704056dcd17bcf83bed8b68c59416dac1119be77755efe3bde0a64e46e0c8261055a565b6104406104ad565b61045c5760405162461bcd60e51b81526004016101fe90610aea565b61021f7f523a704056dcd17bcf83bed8b68c59416dac1119be77755efe3bde0a64e46e0c826104cc565b600061022d82610670565b61049a8261052e565b6104a381610550565b61024f83836104cc565b60006104c7600080516020610c508339815191523361064b565b905090565b6000828152600080516020610c30833981519152602052604090206104f19082610694565b5060405133906001600160a01b0383169084907ff6391f5c32d9c69d2a47ea670b442974b53935d1edc7fd64eb21e047a839171b90600090a45050565b6000908152600080516020610c30833981519152602052604090206002015490565b61021f81336106a9565b6000828152600080516020610c308339815191526020526040902061057f908261070f565b5060405133906001600160a01b0383169084907f2f8788117e7eff1d82e926ec794901d17c78024a50270940304540a733656f0d90600090a45050565b60006105c78361052e565b6000848152600080516020610c308339815191526020526040808220600201859055519192508391839186917fbd79b86ffe0ab8e8776151514217cd7cacd52c909f66475c3af44e129f0b00ff9190a4505050565b61021f81336104cc565b6000828152600080516020610c30833981519152602052604081206103d79083610724565b6000828152600080516020610c30833981519152602052604081206103d79083610730565b6000818152600080516020610c308339815191526020526040812061022d90610752565b60006103d7836001600160a01b03841661075c565b6106b3828261064b565b61070b576106c9816001600160a01b0316610821565b6106d4836020610833565b6040516020016106e5929190610b45565b60408051601f198184030181529082905262461bcd60e51b82526101fe91600401610bba565b5050565b60006103d7836001600160a01b038416610972565b60006103d783836109b5565b6001600160a01b038116600090815260018301602052604081205415156103d7565b600061022d825490565b6000818152600183016020526040812054801561081a5783546000908590600019810190811061078e5761078e610bed565b90600052602060002001549050808560000160018403815481106107b4576107b4610bed565b60009182526020808320909101929092559182526001860190526040902081905583548490806107e6576107e6610c03565b6001900381819060005260206000200160009055905583600101600084815260200190815260200160002060009055600191505b5092915050565b606061022d6001600160a01b03831660145b60011b600201606060008267ffffffffffffffff81111561085657610856610c19565b6040519080825280601f01601f191660200182016040528015610880576020820181803683370190505b509050600360fc1b8160008151811061089b5761089b610bed565b60200101906001600160f81b031916908160001a905350600f60fb1b816001815181106108ca576108ca610bed565b60200101906001600160f81b031916908160001a9053505b600283111561095357600019909201916f181899199a1a9b1b9c1cb0b131b232b360811b600f85166010811061091a5761091a610bed565b1a60f81b81848151811061093057610930610bed565b60200101906001600160f81b031916908160001a905350600484901c93506108e2565b83156103d7576040516355a04ff160e11b815260040160405180910390fd5b600081815260018301602052604081205461022d575081546001808201845560008481526020808220909301849055845493815293810190915260409092205590565b815460009082106109d95760405163e637bf3b60e01b815260040160405180910390fd5b8260000182815481106109ee576109ee610bed565b9060005260206000200154905092915050565b80356001600160a01b0381168114610a1857600080fd5b919050565b600060208284031215610a2f57600080fd5b6103d782610a01565b600060208284031215610a4a57600080fd5b5035919050565b60008060408385031215610a6457600080fd5b82359150610a7460208401610a01565b90509250929050565b600080600060608486031215610a9257600080fd5b83356001600160801b031981168114610aaa57600080fd5b925060208401359150610abf60408501610a01565b90509250925092565b60008060408385031215610adb57600080fd5b50508035926020909101359150565b60208082526018908201527f446f6573206e6f7420686176652061646d696e20726f6c650000000000000000604082015260600190565b60005b83811015610b3c578181015183820152602001610b24565b50506000910152565b7f416363657373436f6e74726f6c3a206163636f756e7420000000000000000000815260008351610b7d816017850160208801610b21565b7001034b99036b4b9b9b4b733903937b6329607d1b6017918401918201528351610bae816028840160208801610b21565b01602801949350505050565b6020815260008251806020840152610bd9816040850160208701610b21565b601f01601f19169190910160400192915050565b634e487b7160e01b600052603260045260246000fd5b634e487b7160e01b600052603160045260246000fd5b634e487b7160e01b600052604160045260246000fdfed3889cc5458b268d0544e5534672df1296288ca3f93cbd39bd6f497a5c622811df8b4c520ffe197c5343c6f5aec59570151ef9a492f2c624fd45ddde6135ec42","linkReferences":{}},"methodIdentifiers":{"addAdmin(address)":"70480275","addOperator(address)":"9870d7fe","getRoleAdmin(bytes32)":"248a9ca3","getRoleMember(bytes32,uint256)":"9010d07c","getRoleMemberCount(bytes32)":"ca15c873","grantRole(bytes32,address)":"2f2ff15d","hasRole(bytes32,address)":"91d14854","initialize(bytes16,uint256,address)":"89ee70c6","removeAdmin(address)":"1785f53c","removeOperator(address)":"ac8a584a","renounceRole(bytes32)":"8bb9c5bf","revokeRole(bytes32,address)":"d547741f"},"id":55}