{"abi":[{"type":"function","name":"DEFAULT_ADMIN_ROLE","inputs":[],"outputs":[{"name":"","type":"bytes32","internalType":"bytes32"}],"stateMutability":"view"},{"type":"function","name":"INVESTOR_ROLE","inputs":[],"outputs":[{"name":"","type":"bytes32","internalType":"bytes32"}],"stateMutability":"view"},{"type":"function","name":"OPERATOR_ROLE","inputs":[],"outputs":[{"name":"","type":"bytes32","internalType":"bytes32"}],"stateMutability":"view"},{"type":"function","name":"acceptAdmin","inputs":[],"outputs":[],"stateMutability":"nonpayable"},{"type":"function","name":"getAdmin","inputs":[],"outputs":[{"name":"","type":"address","internalType":"address"}],"stateMutability":"view"},{"type":"function","name":"getPendingAdmin","inputs":[],"outputs":[{"name":"","type":"address","internalType":"address"}],"stateMutability":"view"},{"type":"function","name":"getRoleAdmin","inputs":[{"name":"role","type":"bytes32","internalType":"bytes32"}],"outputs":[{"name":"","type":"bytes32","internalType":"bytes32"}],"stateMutability":"view"},{"type":"function","name":"grantRole","inputs":[{"name":"role","type":"bytes32","internalType":"bytes32"},{"name":"account","type":"address","internalType":"address"}],"outputs":[],"stateMutability":"nonpayable"},{"type":"function","name":"hasRole","inputs":[{"name":"role","type":"bytes32","internalType":"bytes32"},{"name":"account","type":"address","internalType":"address"}],"outputs":[{"name":"","type":"bool","internalType":"bool"}],"stateMutability":"view"},{"type":"function","name":"initializeAccessControl","inputs":[],"outputs":[],"stateMutability":"nonpayable"},{"type":"function","name":"renounceRole","inputs":[{"name":"role","type":"bytes32","internalType":"bytes32"},{"name":"account","type":"address","internalType":"address"}],"outputs":[],"stateMutability":"nonpayable"},{"type":"function","name":"revokeRole","inputs":[{"name":"role","type":"bytes32","internalType":"bytes32"},{"name":"account","type":"address","internalType":"address"}],"outputs":[],"stateMutability":"nonpayable"},{"type":"function","name":"supportsInterface","inputs":[{"name":"interfaceId","type":"bytes4","internalType":"bytes4"}],"outputs":[{"name":"","type":"bool","internalType":"bool"}],"stateMutability":"view"},{"type":"function","name":"transferAdmin","inputs":[{"name":"newAdmin","type":"address","internalType":"address"}],"outputs":[],"stateMutability":"nonpayable"},{"type":"event","name":"Initialized","inputs":[{"name":"version","type":"uint8","indexed":false,"internalType":"uint8"}],"anonymous":false},{"type":"event","name":"RoleAdminChanged","inputs":[{"name":"role","type":"bytes32","indexed":true,"internalType":"bytes32"},{"name":"previousAdminRole","type":"bytes32","indexed":true,"internalType":"bytes32"},{"name":"newAdminRole","type":"bytes32","indexed":true,"internalType":"bytes32"}],"anonymous":false},{"type":"event","name":"RoleGranted","inputs":[{"name":"role","type":"bytes32","indexed":true,"internalType":"bytes32"},{"name":"account","type":"address","indexed":true,"internalType":"address"},{"name":"sender","type":"address","indexed":true,"internalType":"address"}],"anonymous":false},{"type":"event","name":"RoleRevoked","inputs":[{"name":"role","type":"bytes32","indexed":true,"internalType":"bytes32"},{"name":"account","type":"address","indexed":true,"internalType":"address"},{"name":"sender","type":"address","indexed":true,"internalType":"address"}],"anonymous":false},{"type":"error","name":"AccessControlBadConfirmation","inputs":[]},{"type":"error","name":"AccessControlInvalidTransfer","inputs":[]},{"type":"error","name":"AccessControlUnauthorized","inputs":[{"name":"account","type":"address","internalType":"address"},{"name":"role","type":"bytes32","internalType":"bytes32"}]}],"bytecode":{"object":"0x608060405234801561001057600080fd5b50610b62806100206000396000f3fe608060405234801561001057600080fd5b50600436106100ea5760003560e01c806376082a5e1161008c578063d046815611610066578063d0468156146101ef578063d547741f1461021f578063f5b541a614610232578063fea0c02e1461024757600080fd5b806376082a5e146101bf57806391d14854146101d4578063a217fddf146101e757600080fd5b80632f2ff15d116100c85780632f2ff15d1461014257806336568abe146101555780636e9960c31461016857806375829def146101ac57600080fd5b806301ffc9a7146100ef5780630e18b68114610117578063248a9ca314610121575b600080fd5b6101026100fd3660046109b1565b61024f565b60405190151581526020015b60405180910390f35b61011f610286565b005b61013461012f3660046109e2565b610392565b60405190815260200161010e565b61011f610150366004610a17565b6103c3565b61011f610163366004610a17565b61041c565b7f2031468f0c30f7087de4da9398818763b546d7f89935fa65485c24ff1df26bf5546001600160a01b03165b6040516001600160a01b03909116815260200161010e565b61011f6101ba366004610a43565b61044f565b610134600080516020610b2283398151915281565b6101026101e2366004610a17565b610552565b610134600081565b7f2031468f0c30f7087de4da9398818763b546d7f89935fa65485c24ff1df26bf6546001600160a01b0316610194565b61011f61022d366004610a17565b61058a565b610134600080516020610b4283398151915281565b61011f6105a4565b60006001600160e01b03198216637965db0b60e01b148061028057506301ffc9a760e01b6001600160e01b03198316145b92915050565b6102b96040518060400160405280601281526020017120b1b1b2b83a34b7339030b236b4b717171760711b81525061066b565b7f2031468f0c30f7087de4da9398818763b546d7f89935fa65485c24ff1df26bf654600080516020610b02833981519152906001600160a01b03163314610313576040516356b4a7db60e11b815260040160405180910390fd5b60028101546001600160a01b031661032c6000336106ae565b6002820180546001600160a01b0319163317905561034b600082610845565b6003820180546001600160a01b031916905560408051808201909152601181527020b1b1b2b83a32b21030b236b4b717171760791b602082015261038e9061066b565b5050565b60009081527f2031468f0c30f7087de4da9398818763b546d7f89935fa65485c24ff1df26bf4602052604090205490565b6103d56103cf83610392565b33610552565b61041257336103e383610392565b604051633cea3dfb60e11b81526001600160a01b03909216600483015260248201526044015b60405180910390fd5b61038e82826106ae565b6001600160a01b03811633146104455760405163334bd91960e11b815260040160405180910390fd5b61038e8282610845565b6104876040518060400160405280601681526020017502a3930b739b332b93934b7339030b236b4b7103a1d160551b815250826108d5565b600080516020610b028339815191526001600160a01b0382166104bd576040516356b4a7db60e11b815260040160405180910390fd5b60028101546001600160a01b031633146104f357604051633cea3dfb60e11b815233600482015260006024820152604401610409565b6104fe6000836106ae565b6003810180546001600160a01b0319166001600160a01b03841617905560408051808201909152601681527502832b73234b7339030b236b4b71039b2ba103a379d160551b602082015261038e90836108d5565b6000918252600080516020610b02833981519152602090815260408084206001600160a01b0393909316845291905290205460ff1690565b6105966103cf83610392565b61044557336103e383610392565b3360008181527f5b8426ad6b46b2b80795b73723cafbcfb6f2e137b2c69c0c73ffc6754f1a64f56020526040808220805460ff191660011790557f2031468f0c30f7087de4da9398818763b546d7f89935fa65485c24ff1df26bf580546001600160a01b0319168417905551600080516020610b0283398151915292918291600080516020610ae2833981519152908290a461064f600080516020610b42833981519152600061091a565b610668600080516020610b22833981519152600061091a565b50565b6106688160405160240161067f9190610aa4565b60408051601f198184030181529190526020810180516001600160e01b031663104c13eb60e21b179052610990565b6000828152600080516020610b02833981519152602081815260408084206001600160a01b03861685529091529091205460ff16610840576000838152602082815260408083206001600160a01b0386168085529252808320805460ff191660011790555133928691600080516020610ae28339815191529190a48261084057600080516020610b428339815191526000908152602082815260408083206001600160a01b038616845290915290205460ff166107b757600080516020610b428339815191526000818152602083815260408083206001600160a01b0387168085529252808320805460ff191660011790555133939192600080516020610ae283398151915291a45b600080516020610b228339815191526000908152602082815260408083206001600160a01b038616845290915290205460ff1661084057600080516020610b228339815191526000818152602083815260408083206001600160a01b0387168085529252808320805460ff191660011790555133939192600080516020610ae283398151915291a45b505050565b6000828152600080516020610b02833981519152602081815260408084206001600160a01b03861685529091529091205460ff1615610840576000838152602082815260408083206001600160a01b0386168085529252808320805460ff1916905551339286917ff6391f5c32d9c69d2a47ea670b442974b53935d1edc7fd64eb21e047a839171b9190a4505050565b61038e82826040516024016108eb929190610ab7565b60408051601f198184030181529190526020810180516001600160e01b031663319af33360e01b179052610990565b60008281527f2031468f0c30f7087de4da9398818763b546d7f89935fa65485c24ff1df26bf460205260408082208054908490559051600080516020610b02833981519152928491839187917fbd79b86ffe0ab8e8776151514217cd7cacd52c909f66475c3af44e129f0b00ff9190a450505050565b80516a636f6e736f6c652e6c6f67602083016000808483855afa5050505050565b6000602082840312156109c357600080fd5b81356001600160e01b0319811681146109db57600080fd5b9392505050565b6000602082840312156109f457600080fd5b5035919050565b80356001600160a01b0381168114610a1257600080fd5b919050565b60008060408385031215610a2a57600080fd5b82359150610a3a602084016109fb565b90509250929050565b600060208284031215610a5557600080fd5b6109db826109fb565b6000815180845260005b81811015610a8457602081850181015186830182015201610a68565b506000602082860101526020601f19601f83011685010191505092915050565b6020815260006109db6020830184610a5e565b604081526000610aca6040830185610a5e565b905060018060a01b0383166020830152939250505056fe2f8788117e7eff1d82e926ec794901d17c78024a50270940304540a733656f0d2031468f0c30f7087de4da9398818763b546d7f89935fa65485c24ff1df26bf3b165298935924f540e4181c03493a5d686c54a0aaeb3f6216de85b7ffbba773897667070c54ef182b0f5858b034beac1b6f3089aa2d3188bb1e8929f4fa9b929","linkReferences":{}},"methodIdentifiers":{"DEFAULT_ADMIN_ROLE()":"a217fddf","INVESTOR_ROLE()":"76082a5e","OPERATOR_ROLE()":"f5b541a6","acceptAdmin()":"0e18b681","getAdmin()":"6e9960c3","getPendingAdmin()":"d0468156","getRoleAdmin(bytes32)":"248a9ca3","grantRole(bytes32,address)":"2f2ff15d","hasRole(bytes32,address)":"91d14854","initializeAccessControl()":"fea0c02e","renounceRole(bytes32,address)":"36568abe","revokeRole(bytes32,address)":"d547741f","supportsInterface(bytes4)":"01ffc9a7","transferAdmin(address)":"75829def"},"id":54}