{"abi":[{"type":"function","name":"addAdmin","inputs":[{"name":"addr","type":"address","internalType":"address"}],"outputs":[],"stateMutability":"nonpayable"},{"type":"function","name":"addOperator","inputs":[{"name":"addr","type":"address","internalType":"address"}],"outputs":[],"stateMutability":"nonpayable"},{"type":"function","name":"addWalletToStakeholder","inputs":[{"name":"_stakeholder_id","type":"bytes16","internalType":"bytes16"},{"name":"_wallet","type":"address","internalType":"address"}],"outputs":[],"stateMutability":"nonpayable"},{"type":"function","name":"createStakeholder","inputs":[{"name":"_id","type":"bytes16","internalType":"bytes16"},{"name":"_stakeholder_type","type":"string","internalType":"string"},{"name":"_current_relationship","type":"string","internalType":"string"}],"outputs":[],"stateMutability":"nonpayable"},{"type":"function","name":"getRoleAdmin","inputs":[{"name":"role","type":"bytes32","internalType":"bytes32"}],"outputs":[{"name":"","type":"bytes32","internalType":"bytes32"}],"stateMutability":"view"},{"type":"function","name":"getRoleMember","inputs":[{"name":"role","type":"bytes32","internalType":"bytes32"},{"name":"index","type":"uint256","internalType":"uint256"}],"outputs":[{"name":"","type":"address","internalType":"address"}],"stateMutability":"view"},{"type":"function","name":"getRoleMemberCount","inputs":[{"name":"role","type":"bytes32","internalType":"bytes32"}],"outputs":[{"name":"","type":"uint256","internalType":"uint256"}],"stateMutability":"view"},{"type":"function","name":"getStakeholderById","inputs":[{"name":"_id","type":"bytes16","internalType":"bytes16"}],"outputs":[{"name":"","type":"bytes16","internalType":"bytes16"},{"name":"","type":"string","internalType":"string"},{"name":"","type":"string","internalType":"string"}],"stateMutability":"view"},{"type":"function","name":"getStakeholderIdByWallet","inputs":[{"name":"_wallet","type":"address","internalType":"address"}],"outputs":[{"name":"stakeholderId","type":"bytes16","internalType":"bytes16"}],"stateMutability":"view"},{"type":"function","name":"getTotalNumberOfStakeholders","inputs":[],"outputs":[{"name":"","type":"uint256","internalType":"uint256"}],"stateMutability":"view"},{"type":"function","name":"grantRole","inputs":[{"name":"role","type":"bytes32","internalType":"bytes32"},{"name":"account","type":"address","internalType":"address"}],"outputs":[],"stateMutability":"nonpayable"},{"type":"function","name":"hasRole","inputs":[{"name":"role","type":"bytes32","internalType":"bytes32"},{"name":"account","type":"address","internalType":"address"}],"outputs":[{"name":"","type":"bool","internalType":"bool"}],"stateMutability":"view"},{"type":"function","name":"removeAdmin","inputs":[{"name":"addr","type":"address","internalType":"address"}],"outputs":[],"stateMutability":"nonpayable"},{"type":"function","name":"removeOperator","inputs":[{"name":"addr","type":"address","internalType":"address"}],"outputs":[],"stateMutability":"nonpayable"},{"type":"function","name":"removeWalletFromStakeholder","inputs":[{"name":"_stakeholder_id","type":"bytes16","internalType":"bytes16"},{"name":"_wallet","type":"address","internalType":"address"}],"outputs":[],"stateMutability":"nonpayable"},{"type":"function","name":"renounceRole","inputs":[{"name":"role","type":"bytes32","internalType":"bytes32"}],"outputs":[],"stateMutability":"nonpayable"},{"type":"function","name":"revokeRole","inputs":[{"name":"role","type":"bytes32","internalType":"bytes32"},{"name":"account","type":"address","internalType":"address"}],"outputs":[],"stateMutability":"nonpayable"},{"type":"event","name":"RoleAdminChanged","inputs":[{"name":"role","type":"bytes32","indexed":true,"internalType":"bytes32"},{"name":"previousAdminRole","type":"bytes32","indexed":true,"internalType":"bytes32"},{"name":"newAdminRole","type":"bytes32","indexed":true,"internalType":"bytes32"}],"anonymous":false},{"type":"event","name":"RoleGranted","inputs":[{"name":"role","type":"bytes32","indexed":true,"internalType":"bytes32"},{"name":"account","type":"address","indexed":true,"internalType":"address"},{"name":"sender","type":"address","indexed":true,"internalType":"address"}],"anonymous":false},{"type":"event","name":"RoleRevoked","inputs":[{"name":"role","type":"bytes32","indexed":true,"internalType":"bytes32"},{"name":"account","type":"address","indexed":true,"internalType":"address"},{"name":"sender","type":"address","indexed":true,"internalType":"address"}],"anonymous":false},{"type":"event","name":"StakeholderCreated","inputs":[{"name":"id","type":"bytes16","indexed":true,"internalType":"bytes16"}],"anonymous":false},{"type":"error","name":"EnumerableSet__IndexOutOfBounds","inputs":[]},{"type":"error","name":"InvalidWallet","inputs":[{"name":"wallet","type":"address","internalType":"address"}]},{"type":"error","name":"NoStakeholder","inputs":[{"name":"stakeholder_id","type":"bytes16","internalType":"bytes16"}]},{"type":"error","name":"StakeholderAlreadyExists","inputs":[{"name":"stakeholder_id","type":"bytes16","internalType":"bytes16"}]},{"type":"error","name":"UintUtils__InsufficientPadding","inputs":[]},{"type":"error","name":"WalletAlreadyExists","inputs":[{"name":"wallet","type":"address","internalType":"address"}]}],"bytecode":{"object":"0x608060405234801561001057600080fd5b506115f1806100206000396000f3fe608060405234801561001057600080fd5b506004361061010b5760003560e01c806391d14854116100a2578063ca15c87311610071578063ca15c8731461023f578063d125ba8b14610252578063d547741f14610265578063d95a6be514610278578063f908b9491461028b57600080fd5b806391d14854146101ca5780639870d7fe146101ed578063a9e9f32a14610200578063ac8a584a1461022c57600080fd5b806370480275116100de578063704802751461017157806384266a7d146101845780638bb9c5bf1461018c5780639010d07c1461019f57600080fd5b80631785f53c14610110578063248a9ca3146101255780632629ac0f1461014b5780632f2ff15d1461015e575b600080fd5b61012361011e366004611077565b6102ad565b005b610138610133366004611092565b610307565b6040519081526020015b60405180910390f35b6101236101593660046110c3565b610318565b61012361016c3660046110f6565b610398565b61012361017f366004611077565b6103b9565b610138610407565b61012361019a366004611092565b610424565b6101b26101ad366004611119565b61042d565b6040516001600160a01b039091168152602001610142565b6101dd6101d83660046110f6565b610440565b6040519015158152602001610142565b6101236101fb366004611077565b61044c565b61021361020e366004611077565b610488565b6040516001600160801b03199091168152602001610142565b61012361023a366004611077565b610493565b61013861024d366004611092565b6104cf565b6101236102603660046110c3565b6104da565b6101236102733660046110f6565b610556565b6101236102863660046111de565b610572565b61029e610299366004611252565b6105a1565b604051610142939291906112bd565b6102b56105bd565b6102da5760405162461bcd60e51b81526004016102d1906112fc565b60405180910390fd5b6103047fdf8b4c520ffe197c5343c6f5aec59570151ef9a492f2c624fd45ddde6135ec42826105e9565b50565b60006103128261064b565b92915050565b6103306000805160206115b18339815191523361066d565b8061033e575061033e6105bd565b61038a5760405162461bcd60e51b815260206004820152601b60248201527f446f6573206e6f742068617665206f70657261746f7220726f6c65000000000060448201526064016102d1565b6103948282610692565b5050565b6103a18261064b565b6103aa816106eb565b6103b483836106f5565b505050565b6103c16105bd565b6103dd5760405162461bcd60e51b81526004016102d1906112fc565b6103047fdf8b4c520ffe197c5343c6f5aec59570151ef9a492f2c624fd45ddde6135ec42826106f5565b600061041f6000805160206115d18339815191525490565b905090565b61030481610757565b60006104398383610761565b9392505050565b6000610439838361066d565b6104546105bd565b6104705760405162461bcd60e51b81526004016102d1906112fc565b6103046000805160206115b1833981519152826106f5565b600061031282610786565b61049b6105bd565b6104b75760405162461bcd60e51b81526004016102d1906112fc565b6103046000805160206115b1833981519152826105e9565b600061031282610828565b6104f26000805160206115b18339815191523361066d565b8061050057506105006105bd565b61054c5760405162461bcd60e51b815260206004820152601b60248201527f446f6573206e6f742068617665206f70657261746f7220726f6c65000000000060448201526064016102d1565b610394828261084c565b61055f8261064b565b610568816106eb565b6103b483836105e9565b61057a6105bd565b6105965760405162461bcd60e51b81526004016102d1906112fc565b6103b4838383610893565b60006060806105af84610992565b9250925092505b9193909250565b600061041f7fdf8b4c520ffe197c5343c6f5aec59570151ef9a492f2c624fd45ddde6135ec423361066d565b60008281526000805160206115518339815191526020526040902061060e9082610bc1565b5060405133906001600160a01b0383169084907ff6391f5c32d9c69d2a47ea670b442974b53935d1edc7fd64eb21e047a839171b90600090a45050565b6000908152600080516020611551833981519152602052604090206002015490565b6000828152600080516020611551833981519152602052604081206104399083610bd6565b61069b81610bf8565b6106a482610c2a565b6106ad81610c7c565b6001600160a01b031660009081526000805160206115718339815191526020526040902080546001600160801b03191660809290921c919091179055565b6103048133610cd8565b60008281526000805160206115518339815191526020526040902061071a9082610d3a565b5060405133906001600160a01b0383169084907f2f8788117e7eff1d82e926ec794901d17c78024a50270940304540a733656f0d90600090a45050565b61030481336105e9565b6000828152600080516020611551833981519152602052604081206104399083610d4f565b6001600160a01b0381166000908152600080516020611571833981519152602052604081205460801b6001600160801b0319166107fc5760405162461bcd60e51b8152602060048201526014602482015273139bc81cdd185ad95a1bdb19195c88199bdd5b9960621b60448201526064016102d1565b506001600160a01b03166000908152600080516020611571833981519152602052604090205460801b90565b60008181526000805160206115518339815191526020526040812061031290610d5b565b61085581610bf8565b61085e82610c2a565b6001600160a01b031660009081526000805160206115718339815191526020526040902080546001600160801b031916905550565b61089c83610d65565b6000805160206115d1833981519152604080516060810182526001600160801b0319868116825260208083018781529383018690528454600180820187556000968752919095208351600390960201805490921660809590951c9490941781559151909282019061090d90826113bb565b506040820151600282019061092290826113bb565b50505061093a6000805160206115d183398151915290565b546001600160801b031984166000818152600080516020611591833981519152602052604080822093909355915190917f53df47344d1cdf2ddb4901af5df61e37e14606bb7c8cc004d65c7c83ab3d069391a2505050565b6001600160801b0319811660009081526000805160206115918339815191526020526040812054606090819015610b9b576001600160801b03198416600090815260008051602061159183398151915260205260408120546000805160206115d183398151915290610a069060019061147b565b81548110610a1657610a1661149c565b90600052602060002090600302016040518060600160405290816000820160009054906101000a900460801b6001600160801b0319166001600160801b0319168152602001600182018054610a6a90611333565b80601f0160208091040260200160405190810160405280929190818152602001828054610a9690611333565b8015610ae35780601f10610ab857610100808354040283529160200191610ae3565b820191906000526020600020905b815481529060010190602001808311610ac657829003601f168201915b50505050508152602001600282018054610afc90611333565b80601f0160208091040260200160405190810160405280929190818152602001828054610b2890611333565b8015610b755780601f10610b4a57610100808354040283529160200191610b75565b820191906000526020600020905b815481529060010190602001808311610b5857829003601f168201915b5050505050815250509050806000015181602001518260400151935093509350506105b6565b5050604080516020808201835260008083528351918201909352828152919250906105b6565b6000610439836001600160a01b038416610db6565b6001600160a01b03811660009081526001830160205260408120541515610439565b6001600160a01b03811661030457604051633146914d60e11b81526001600160a01b03821660048201526024016102d1565b6001600160801b031981166000908152600080516020611591833981519152602052604081205490036103045760405163b4586dfb60e01b81526001600160801b0319821660048201526024016102d1565b6001600160a01b0381166000908152600080516020611571833981519152602052604090205460801b6001600160801b0319161561030457604051633c4d084f60e11b81526001600160a01b03821660048201526024016102d1565b610ce2828261066d565b61039457610cf8816001600160a01b0316610e7b565b610d03836020610e8d565b604051602001610d149291906114b2565b60408051601f198184030181529082905262461bcd60e51b82526102d191600401611527565b6000610439836001600160a01b038416610fcc565b6000610439838361100f565b6000610312825490565b6001600160801b031981166000908152600080516020611591833981519152602052604090205415610304576040516333270c6160e01b81526001600160801b0319821660048201526024016102d1565b60008181526001830160205260408120548015610e7457835460009085906000198101908110610de857610de861149c565b9060005260206000200154905080856000016001840381548110610e0e57610e0e61149c565b6000918252602080832090910192909255918252600186019052604090208190558354849080610e4057610e4061153a565b6001900381819060005260206000200160009055905583600101600084815260200190815260200160002060009055600191505b5092915050565b60606103126001600160a01b03831660145b60011b600201606060008267ffffffffffffffff811115610eb057610eb061113b565b6040519080825280601f01601f191660200182016040528015610eda576020820181803683370190505b509050600360fc1b81600081518110610ef557610ef561149c565b60200101906001600160f81b031916908160001a905350600f60fb1b81600181518110610f2457610f2461149c565b60200101906001600160f81b031916908160001a9053505b6002831115610fad57600019909201916f181899199a1a9b1b9c1cb0b131b232b360811b600f851660108110610f7457610f7461149c565b1a60f81b818481518110610f8a57610f8a61149c565b60200101906001600160f81b031916908160001a905350600484901c9350610f3c565b8315610439576040516355a04ff160e11b815260040160405180910390fd5b6000818152600183016020526040812054610312575081546001808201845560008481526020808220909301849055845493815293810190915260409092205590565b815460009082106110335760405163e637bf3b60e01b815260040160405180910390fd5b8260000182815481106110485761104861149c565b9060005260206000200154905092915050565b80356001600160a01b038116811461107257600080fd5b919050565b60006020828403121561108957600080fd5b6104398261105b565b6000602082840312156110a457600080fd5b5035919050565b80356001600160801b03198116811461107257600080fd5b600080604083850312156110d657600080fd5b6110df836110ab565b91506110ed6020840161105b565b90509250929050565b6000806040838503121561110957600080fd5b823591506110ed6020840161105b565b6000806040838503121561112c57600080fd5b50508035926020909101359150565b634e487b7160e01b600052604160045260246000fd5b600082601f83011261116257600080fd5b813567ffffffffffffffff8082111561117d5761117d61113b565b604051601f8301601f19908116603f011681019082821181831017156111a5576111a561113b565b816040528381528660208588010111156111be57600080fd5b836020870160208301376000602085830101528094505050505092915050565b6000806000606084860312156111f357600080fd5b6111fc846110ab565b9250602084013567ffffffffffffffff8082111561121957600080fd5b61122587838801611151565b9350604086013591508082111561123b57600080fd5b5061124886828701611151565b9150509250925092565b60006020828403121561126457600080fd5b610439826110ab565b60005b83811015611288578181015183820152602001611270565b50506000910152565b600081518084526112a981602086016020860161126d565b601f01601f19169290920160200192915050565b6001600160801b0319841681526060602082015260006112e06060830185611291565b82810360408401526112f28185611291565b9695505050505050565b60208082526018908201527f446f6573206e6f7420686176652061646d696e20726f6c650000000000000000604082015260600190565b600181811c9082168061134757607f821691505b60208210810361136757634e487b7160e01b600052602260045260246000fd5b50919050565b601f8211156103b457600081815260208120601f850160051c810160208610156113945750805b601f850160051c820191505b818110156113b3578281556001016113a0565b505050505050565b815167ffffffffffffffff8111156113d5576113d561113b565b6113e9816113e38454611333565b8461136d565b602080601f83116001811461141e57600084156114065750858301515b600019600386901b1c1916600185901b1785556113b3565b600085815260208120601f198616915b8281101561144d5788860151825594840194600190910190840161142e565b508582101561146b5787850151600019600388901b60f8161c191681555b5050505050600190811b01905550565b8181038181111561031257634e487b7160e01b600052601160045260246000fd5b634e487b7160e01b600052603260045260246000fd5b7f416363657373436f6e74726f6c3a206163636f756e74200000000000000000008152600083516114ea81601785016020880161126d565b7001034b99036b4b9b9b4b733903937b6329607d1b601791840191820152835161151b81602884016020880161126d565b01602801949350505050565b6020815260006104396020830184611291565b634e487b7160e01b600052603160045260246000fdfed3889cc5458b268d0544e5534672df1296288ca3f93cbd39bd6f497a5c622811e8b8fb71d93f41355a02f1dbf23faef64e2c875ab61bf9525ac127ba9398eae9e8b8fb71d93f41355a02f1dbf23faef64e2c875ab61bf9525ac127ba9398eaea523a704056dcd17bcf83bed8b68c59416dac1119be77755efe3bde0a64e46e0ce8b8fb71d93f41355a02f1dbf23faef64e2c875ab61bf9525ac127ba9398eae8","linkReferences":{}},"methodIdentifiers":{"addAdmin(address)":"70480275","addOperator(address)":"9870d7fe","addWalletToStakeholder(bytes16,address)":"2629ac0f","createStakeholder(bytes16,string,string)":"d95a6be5","getRoleAdmin(bytes32)":"248a9ca3","getRoleMember(bytes32,uint256)":"9010d07c","getRoleMemberCount(bytes32)":"ca15c873","getStakeholderById(bytes16)":"f908b949","getStakeholderIdByWallet(address)":"a9e9f32a","getTotalNumberOfStakeholders()":"84266a7d","grantRole(bytes32,address)":"2f2ff15d","hasRole(bytes32,address)":"91d14854","removeAdmin(address)":"1785f53c","removeOperator(address)":"ac8a584a","removeWalletFromStakeholder(bytes16,address)":"d125ba8b","renounceRole(bytes32)":"8bb9c5bf","revokeRole(bytes32,address)":"d547741f"},"id":9}