{"abi":[{"type":"function","name":"acceptStock","inputs":[{"name":"stakeholderId","type":"bytes16","internalType":"bytes16"},{"name":"stockClassId","type":"bytes16","internalType":"bytes16"},{"name":"securityId","type":"bytes16","internalType":"bytes16"},{"name":"comments","type":"string[]","internalType":"string[]"}],"outputs":[],"stateMutability":"nonpayable"},{"type":"function","name":"addAdmin","inputs":[{"name":"addr","type":"address","internalType":"address"}],"outputs":[],"stateMutability":"nonpayable"},{"type":"function","name":"addOperator","inputs":[{"name":"addr","type":"address","internalType":"address"}],"outputs":[],"stateMutability":"nonpayable"},{"type":"function","name":"addWalletToStakeholder","inputs":[{"name":"_stakeholder_id","type":"bytes16","internalType":"bytes16"},{"name":"_wallet","type":"address","internalType":"address"}],"outputs":[],"stateMutability":"nonpayable"},{"type":"function","name":"adjustIssuerAuthorizedShares","inputs":[{"name":"newSharesAuthorized","type":"uint256","internalType":"uint256"},{"name":"comments","type":"string[]","internalType":"string[]"},{"name":"boardApprovalDate","type":"string","internalType":"string"},{"name":"stockholderApprovalDate","type":"string","internalType":"string"}],"outputs":[],"stateMutability":"nonpayable"},{"type":"function","name":"adjustStockClassAuthorizedShares","inputs":[{"name":"stockClassId","type":"bytes16","internalType":"bytes16"},{"name":"newAuthorizedShares","type":"uint256","internalType":"uint256"},{"name":"comments","type":"string[]","internalType":"string[]"},{"name":"boardApprovalDate","type":"string","internalType":"string"},{"name":"stockholderApprovalDate","type":"string","internalType":"string"}],"outputs":[],"stateMutability":"nonpayable"},{"type":"function","name":"cancelStock","inputs":[{"name":"params","type":"tuple","internalType":"struct StockParams","components":[{"name":"stakeholder_id","type":"bytes16","internalType":"bytes16"},{"name":"stock_class_id","type":"bytes16","internalType":"bytes16"},{"name":"security_id","type":"bytes16","internalType":"bytes16"},{"name":"comments","type":"string[]","internalType":"string[]"},{"name":"reason_text","type":"string","internalType":"string"}]},{"name":"quantity","type":"uint256","internalType":"uint256"}],"outputs":[],"stateMutability":"nonpayable"},{"type":"function","name":"createStakeholder","inputs":[{"name":"_id","type":"bytes16","internalType":"bytes16"},{"name":"_stakeholder_type","type":"string","internalType":"string"},{"name":"_current_relationship","type":"string","internalType":"string"}],"outputs":[],"stateMutability":"nonpayable"},{"type":"function","name":"createStockClass","inputs":[{"name":"_id","type":"bytes16","internalType":"bytes16"},{"name":"_class_type","type":"string","internalType":"string"},{"name":"_price_per_share","type":"uint256","internalType":"uint256"},{"name":"_initial_share_authorized","type":"uint256","internalType":"uint256"}],"outputs":[],"stateMutability":"nonpayable"},{"type":"function","name":"createStockLegendTemplate","inputs":[{"name":"_id","type":"bytes16","internalType":"bytes16"}],"outputs":[],"stateMutability":"nonpayable"},{"type":"function","name":"getActivePosition","inputs":[{"name":"stakeholderId","type":"bytes16","internalType":"bytes16"},{"name":"securityId","type":"bytes16","internalType":"bytes16"}],"outputs":[{"name":"","type":"bytes16","internalType":"bytes16"},{"name":"","type":"uint256","internalType":"uint256"},{"name":"","type":"uint256","internalType":"uint256"},{"name":"","type":"uint40","internalType":"uint40"}],"stateMutability":"view"},{"type":"function","name":"getAveragePosition","inputs":[{"name":"stakeholderId","type":"bytes16","internalType":"bytes16"},{"name":"stockClassId","type":"bytes16","internalType":"bytes16"}],"outputs":[{"name":"","type":"uint256","internalType":"uint256"},{"name":"","type":"uint256","internalType":"uint256"},{"name":"","type":"uint40","internalType":"uint40"}],"stateMutability":"view"},{"type":"function","name":"getRoleAdmin","inputs":[{"name":"role","type":"bytes32","internalType":"bytes32"}],"outputs":[{"name":"","type":"bytes32","internalType":"bytes32"}],"stateMutability":"view"},{"type":"function","name":"getRoleMember","inputs":[{"name":"role","type":"bytes32","internalType":"bytes32"},{"name":"index","type":"uint256","internalType":"uint256"}],"outputs":[{"name":"","type":"address","internalType":"address"}],"stateMutability":"view"},{"type":"function","name":"getRoleMemberCount","inputs":[{"name":"role","type":"bytes32","internalType":"bytes32"}],"outputs":[{"name":"","type":"uint256","internalType":"uint256"}],"stateMutability":"view"},{"type":"function","name":"getStakeholderById","inputs":[{"name":"_id","type":"bytes16","internalType":"bytes16"}],"outputs":[{"name":"","type":"bytes16","internalType":"bytes16"},{"name":"","type":"string","internalType":"string"},{"name":"","type":"string","internalType":"string"}],"stateMutability":"view"},{"type":"function","name":"getStakeholderIdByWallet","inputs":[{"name":"_wallet","type":"address","internalType":"address"}],"outputs":[{"name":"stakeholderId","type":"bytes16","internalType":"bytes16"}],"stateMutability":"view"},{"type":"function","name":"getStockClassById","inputs":[{"name":"_id","type":"bytes16","internalType":"bytes16"}],"outputs":[{"name":"","type":"bytes16","internalType":"bytes16"},{"name":"","type":"string","internalType":"string"},{"name":"","type":"uint256","internalType":"uint256"},{"name":"","type":"uint256","internalType":"uint256"},{"name":"","type":"uint256","internalType":"uint256"}],"stateMutability":"view"},{"type":"function","name":"getTotalActiveSecuritiesCount","inputs":[],"outputs":[{"name":"","type":"uint256","internalType":"uint256"}],"stateMutability":"view"},{"type":"function","name":"getTotalNumberOfStakeholders","inputs":[],"outputs":[{"name":"","type":"uint256","internalType":"uint256"}],"stateMutability":"view"},{"type":"function","name":"getTotalNumberOfStockClasses","inputs":[],"outputs":[{"name":"","type":"uint256","internalType":"uint256"}],"stateMutability":"view"},{"type":"function","name":"getTransactionsCount","inputs":[],"outputs":[{"name":"","type":"uint256","internalType":"uint256"}],"stateMutability":"view"},{"type":"function","name":"grantRole","inputs":[{"name":"role","type":"bytes32","internalType":"bytes32"},{"name":"account","type":"address","internalType":"address"}],"outputs":[],"stateMutability":"nonpayable"},{"type":"function","name":"hasRole","inputs":[{"name":"role","type":"bytes32","internalType":"bytes32"},{"name":"account","type":"address","internalType":"address"}],"outputs":[{"name":"","type":"bool","internalType":"bool"}],"stateMutability":"view"},{"type":"function","name":"initialize","inputs":[{"name":"id","type":"bytes16","internalType":"bytes16"},{"name":"initial_shares_authorized","type":"uint256","internalType":"uint256"},{"name":"admin","type":"address","internalType":"address"}],"outputs":[],"stateMutability":"nonpayable"},{"type":"function","name":"issueStock","inputs":[{"name":"params","type":"tuple","internalType":"struct StockIssuanceParams","components":[{"name":"stock_class_id","type":"bytes16","internalType":"bytes16"},{"name":"stock_plan_id","type":"bytes16","internalType":"bytes16"},{"name":"share_numbers_issued","type":"tuple","internalType":"struct ShareNumbersIssued","components":[{"name":"starting_share_number","type":"uint256","internalType":"uint256"},{"name":"ending_share_number","type":"uint256","internalType":"uint256"}]},{"name":"share_price","type":"uint256","internalType":"uint256"},{"name":"quantity","type":"uint256","internalType":"uint256"},{"name":"vesting_terms_id","type":"bytes16","internalType":"bytes16"},{"name":"cost_basis","type":"uint256","internalType":"uint256"},{"name":"stock_legend_ids","type":"bytes16[]","internalType":"bytes16[]"},{"name":"issuance_type","type":"string","internalType":"string"},{"name":"comments","type":"string[]","internalType":"string[]"},{"name":"custom_id","type":"string","internalType":"string"},{"name":"stakeholder_id","type":"bytes16","internalType":"bytes16"},{"name":"board_approval_date","type":"string","internalType":"string"},{"name":"stockholder_approval_date","type":"string","internalType":"string"},{"name":"consideration_text","type":"string","internalType":"string"},{"name":"security_law_exemptions","type":"string[]","internalType":"string[]"}]}],"outputs":[],"stateMutability":"nonpayable"},{"type":"function","name":"issuer","inputs":[],"outputs":[{"name":"id","type":"bytes16","internalType":"bytes16"},{"name":"shares_issued","type":"uint256","internalType":"uint256"},{"name":"shares_authorized","type":"uint256","internalType":"uint256"}],"stateMutability":"view"},{"type":"function","name":"nonce","inputs":[],"outputs":[{"name":"","type":"uint256","internalType":"uint256"}],"stateMutability":"view"},{"type":"function","name":"reissueStock","inputs":[{"name":"params","type":"tuple","internalType":"struct StockParams","components":[{"name":"stakeholder_id","type":"bytes16","internalType":"bytes16"},{"name":"stock_class_id","type":"bytes16","internalType":"bytes16"},{"name":"security_id","type":"bytes16","internalType":"bytes16"},{"name":"comments","type":"string[]","internalType":"string[]"},{"name":"reason_text","type":"string","internalType":"string"}]},{"name":"resulting_security_ids","type":"bytes16[]","internalType":"bytes16[]"}],"outputs":[],"stateMutability":"nonpayable"},{"type":"function","name":"removeAdmin","inputs":[{"name":"addr","type":"address","internalType":"address"}],"outputs":[],"stateMutability":"nonpayable"},{"type":"function","name":"removeOperator","inputs":[{"name":"addr","type":"address","internalType":"address"}],"outputs":[],"stateMutability":"nonpayable"},{"type":"function","name":"removeWalletFromStakeholder","inputs":[{"name":"_stakeholder_id","type":"bytes16","internalType":"bytes16"},{"name":"_wallet","type":"address","internalType":"address"}],"outputs":[],"stateMutability":"nonpayable"},{"type":"function","name":"renounceRole","inputs":[{"name":"role","type":"bytes32","internalType":"bytes32"}],"outputs":[],"stateMutability":"nonpayable"},{"type":"function","name":"repurchaseStock","inputs":[{"name":"params","type":"tuple","internalType":"struct StockParams","components":[{"name":"stakeholder_id","type":"bytes16","internalType":"bytes16"},{"name":"stock_class_id","type":"bytes16","internalType":"bytes16"},{"name":"security_id","type":"bytes16","internalType":"bytes16"},{"name":"comments","type":"string[]","internalType":"string[]"},{"name":"reason_text","type":"string","internalType":"string"}]},{"name":"quantity","type":"uint256","internalType":"uint256"},{"name":"price","type":"uint256","internalType":"uint256"}],"outputs":[],"stateMutability":"nonpayable"},{"type":"function","name":"retractStockIssuance","inputs":[{"name":"params","type":"tuple","internalType":"struct StockParams","components":[{"name":"stakeholder_id","type":"bytes16","internalType":"bytes16"},{"name":"stock_class_id","type":"bytes16","internalType":"bytes16"},{"name":"security_id","type":"bytes16","internalType":"bytes16"},{"name":"comments","type":"string[]","internalType":"string[]"},{"name":"reason_text","type":"string","internalType":"string"}]}],"outputs":[],"stateMutability":"nonpayable"},{"type":"function","name":"revokeRole","inputs":[{"name":"role","type":"bytes32","internalType":"bytes32"},{"name":"account","type":"address","internalType":"address"}],"outputs":[],"stateMutability":"nonpayable"},{"type":"function","name":"seedMultipleActivePositionsAndSecurityIds","inputs":[{"name":"stakeholderIds","type":"bytes16[]","internalType":"bytes16[]"},{"name":"securityIds","type":"bytes16[]","internalType":"bytes16[]"},{"name":"stockClassIds","type":"bytes16[]","internalType":"bytes16[]"},{"name":"quantities","type":"uint256[]","internalType":"uint256[]"},{"name":"sharePrices","type":"uint256[]","internalType":"uint256[]"},{"name":"timestamps","type":"uint40[]","internalType":"uint40[]"}],"outputs":[],"stateMutability":"nonpayable"},{"type":"function","name":"seedSharesAuthorizedAndIssued","inputs":[{"name":"params","type":"tuple","internalType":"struct InitialShares","components":[{"name":"issuerInitialShares","type":"tuple","internalType":"struct IssuerInitialShares","components":[{"name":"shares_authorized","type":"uint256","internalType":"uint256"},{"name":"shares_issued","type":"uint256","internalType":"uint256"}]},{"name":"stockClassesInitialShares","type":"tuple[]","internalType":"struct StockClassInitialShares[]","components":[{"name":"id","type":"bytes16","internalType":"bytes16"},{"name":"shares_authorized","type":"uint256","internalType":"uint256"},{"name":"shares_issued","type":"uint256","internalType":"uint256"}]}]}],"outputs":[],"stateMutability":"nonpayable"},{"type":"function","name":"stakeholderIndex","inputs":[{"name":"","type":"bytes16","internalType":"bytes16"}],"outputs":[{"name":"","type":"uint256","internalType":"uint256"}],"stateMutability":"view"},{"type":"function","name":"stakeholders","inputs":[{"name":"","type":"uint256","internalType":"uint256"}],"outputs":[{"name":"id","type":"bytes16","internalType":"bytes16"},{"name":"stakeholder_type","type":"string","internalType":"string"},{"name":"current_relationship","type":"string","internalType":"string"}],"stateMutability":"view"},{"type":"function","name":"stockClassIndex","inputs":[{"name":"","type":"bytes16","internalType":"bytes16"}],"outputs":[{"name":"","type":"uint256","internalType":"uint256"}],"stateMutability":"view"},{"type":"function","name":"stockClasses","inputs":[{"name":"","type":"uint256","internalType":"uint256"}],"outputs":[{"name":"id","type":"bytes16","internalType":"bytes16"},{"name":"class_type","type":"string","internalType":"string"},{"name":"price_per_share","type":"uint256","internalType":"uint256"},{"name":"shares_issued","type":"uint256","internalType":"uint256"},{"name":"shares_authorized","type":"uint256","internalType":"uint256"}],"stateMutability":"view"},{"type":"function","name":"stockLegendTemplates","inputs":[{"name":"","type":"uint256","internalType":"uint256"}],"outputs":[{"name":"id","type":"bytes16","internalType":"bytes16"}],"stateMutability":"view"},{"type":"function","name":"transactions","inputs":[{"name":"","type":"uint256","internalType":"uint256"}],"outputs":[{"name":"","type":"bytes","internalType":"bytes"}],"stateMutability":"view"},{"type":"function","name":"transferStock","inputs":[{"name":"transferorStakeholderId","type":"bytes16","internalType":"bytes16"},{"name":"transfereeStakeholderId","type":"bytes16","internalType":"bytes16"},{"name":"stockClassId","type":"bytes16","internalType":"bytes16"},{"name":"isBuyerVerified","type":"bool","internalType":"bool"},{"name":"quantity","type":"uint256","internalType":"uint256"},{"name":"share_price","type":"uint256","internalType":"uint256"}],"outputs":[],"stateMutability":"nonpayable"},{"type":"function","name":"walletsPerStakeholder","inputs":[{"name":"","type":"address","internalType":"address"}],"outputs":[{"name":"","type":"bytes16","internalType":"bytes16"}],"stateMutability":"view"},{"type":"event","name":"IssuerCreated","inputs":[{"name":"id","type":"bytes16","indexed":true,"internalType":"bytes16"}],"anonymous":false},{"type":"event","name":"RoleAdminChanged","inputs":[{"name":"role","type":"bytes32","indexed":true,"internalType":"bytes32"},{"name":"previousAdminRole","type":"bytes32","indexed":true,"internalType":"bytes32"},{"name":"newAdminRole","type":"bytes32","indexed":true,"internalType":"bytes32"}],"anonymous":false},{"type":"event","name":"RoleGranted","inputs":[{"name":"role","type":"bytes32","indexed":true,"internalType":"bytes32"},{"name":"account","type":"address","indexed":true,"internalType":"address"},{"name":"sender","type":"address","indexed":true,"internalType":"address"}],"anonymous":false},{"type":"event","name":"RoleRevoked","inputs":[{"name":"role","type":"bytes32","indexed":true,"internalType":"bytes32"},{"name":"account","type":"address","indexed":true,"internalType":"address"},{"name":"sender","type":"address","indexed":true,"internalType":"address"}],"anonymous":false},{"type":"event","name":"StakeholderCreated","inputs":[{"name":"id","type":"bytes16","indexed":true,"internalType":"bytes16"}],"anonymous":false},{"type":"event","name":"StockClassCreated","inputs":[{"name":"id","type":"bytes16","indexed":true,"internalType":"bytes16"},{"name":"classType","type":"string","indexed":true,"internalType":"string"},{"name":"pricePerShare","type":"uint256","indexed":true,"internalType":"uint256"},{"name":"initialSharesAuthorized","type":"uint256","indexed":false,"internalType":"uint256"}],"anonymous":false},{"type":"event","name":"TxCreated","inputs":[{"name":"index","type":"uint256","indexed":false,"internalType":"uint256"},{"name":"txType","type":"uint8","indexed":false,"internalType":"enum TxType"},{"name":"txData","type":"bytes","indexed":false,"internalType":"bytes"}],"anonymous":false},{"type":"error","name":"EnumerableSet__IndexOutOfBounds","inputs":[]},{"type":"error","name":"InsufficientIssuerSharesAuthorized","inputs":[]},{"type":"error","name":"InsufficientStockClassSharesAuthorized","inputs":[]},{"type":"error","name":"InvalidStockClass","inputs":[{"name":"stock_class_id","type":"bytes16","internalType":"bytes16"}]},{"type":"error","name":"InvalidWallet","inputs":[{"name":"wallet","type":"address","internalType":"address"}]},{"type":"error","name":"NoActivePositionFound","inputs":[]},{"type":"error","name":"NoIssuanceFound","inputs":[]},{"type":"error","name":"NoStakeholder","inputs":[{"name":"stakeholder_id","type":"bytes16","internalType":"bytes16"}]},{"type":"error","name":"StakeholderAlreadyExists","inputs":[{"name":"stakeholder_id","type":"bytes16","internalType":"bytes16"}]},{"type":"error","name":"StockClassAlreadyExists","inputs":[{"name":"stock_class_id","type":"bytes16","internalType":"bytes16"}]},{"type":"error","name":"StockClassDoesNotExist","inputs":[{"name":"stock_class_id","type":"bytes16","internalType":"bytes16"}]},{"type":"error","name":"UintUtils__InsufficientPadding","inputs":[]},{"type":"error","name":"WalletAlreadyExists","inputs":[{"name":"wallet","type":"address","internalType":"address"}]}],"bytecode":{"object":"0x608060405234801561001057600080fd5b50614b39806100206000396000f3fe608060405234801561001057600080fd5b506004361061028a5760003560e01c806384266a7d1161015c578063affed0e0116100ce578063ca15c87311610087578063ca15c873146106bb578063d125ba8b146106ce578063d547741f146106e1578063d95a6be5146106f4578063efb8751914610707578063f908b9491461071a57600080fd5b8063affed0e014610636578063b6238cd11461063f578063c1ad1d2014610652578063c8acae8614610665578063c93fed6614610688578063c95f650e1461069b57600080fd5b8063924a750e11610120578063924a750e146105955780639870d7fe146105a85780639ace38c2146105bb578063a1fc8196146105db578063a9e9f32a14610610578063ac8a584a1461062357600080fd5b806384266a7d1461051957806389ee70c6146105215780638bb9c5bf146105345780639010d07c1461054757806391d148541461057257600080fd5b80633e4106f31161020057806363aefa5a116101b957806363aefa5a1461041d57806363e71c4c146104ab57806369197f4d146104cb5780636924e428146104eb57806370480275146104f35780637799960d1461050657600080fd5b80633e4106f3146103c1578063438fd5d8146103d45780634afd58fa146103e75780634d21af64146103fa578063578cb8f91461040257806361dc98b91461040a57600080fd5b80631d6b8b72116102525780631d6b8b7214610332578063248a9ca3146103545780632629ac0f146103755780632f2ff15d14610388578063371dc8851461039b5780633cec69df146103ae57600080fd5b8063013f7f4f1461028f57806308748030146102bc5780630c22d6bb146102d15780631785f53c146102e45780631d143848146102f7575b600080fd5b6102a261029d366004613554565b61072d565b6040516102b39594939291906135bd565b60405180910390f35b6102cf6102ca3660046135fd565b6107fc565b005b6102cf6102df3660046136d0565b610a55565b6102cf6102f23660046137ad565b610b9d565b60035460045460055461030c9260801b919083565b604080516001600160801b031990941684526020840192909252908201526060016102b3565b610345610340366004613554565b610bee565b6040516102b3939291906137c8565b610367610362366004613554565b610d39565b6040519081526020016102b3565b6102cf610383366004613807565b610d4a565b6102cf61039636600461383a565b610dd8565b6102a26103a936600461385d565b610df9565b6102cf6103bc366004613878565b610f9e565b6102cf6103cf3660046139b4565b61115b565b6102cf6103e2366004613a22565b6112a6565b6102cf6103f5366004613a66565b6114e0565b610367611651565b600854610367565b6102cf610418366004613ac3565b611731565b61047961042b366004613b30565b6001600160801b03199182166000908152600b60209081526040808320939094168252919091522080546001820154600283015460039093015460809290921b9390929164ffffffffff1690565b604080516001600160801b0319909516855260208501939093529183015264ffffffffff1660608201526080016102b3565b6104be6104b9366004613554565b611945565b6040516102b39190613b5a565b6103676104d936600461385d565b60026020526000908152604090205481565b600654610367565b6102cf6105013660046137ad565b611969565b6102cf610514366004613b6f565b6119b7565b600054610367565b6102cf61052f366004613bab565b611b0a565b6102cf610542366004613554565b611b77565b61055a610555366004613be7565b611b80565b6040516001600160a01b0390911681526020016102b3565b61058561058036600461383a565b611b93565b60405190151581526020016102b3565b6102cf6105a3366004613c54565b611b9f565b6102cf6105b63660046137ad565b611f52565b6105ce6105c9366004613554565b611f8e565b6040516102b39190613d91565b6105ee6105e9366004613b30565b61203a565b60408051938452602084019290925264ffffffffff16908201526060016102b3565b6104be61061e3660046137ad565b6121cc565b6102cf6106313660046137ad565b612254565b61036760095481565b6102cf61064d366004613da4565b612290565b6102cf61066036600461385d565b612370565b6104be6106733660046137ad565b60016020526000908152604090205460801b81565b6102cf610696366004613e29565b6123f3565b6103676106a936600461385d565b600a6020526000908152604090205481565b6103676106c9366004613554565b612630565b6102cf6106dc366004613807565b61263b565b6102cf6106ef36600461383a565b6126b7565b6102cf610702366004613e76565b6126d3565b6102cf610715366004613ee9565b612805565b61034561072836600461385d565b61294f565b6006818154811061073d57600080fd5b60009182526020909120600590910201805460018201805460809290921b93509061076790613f8b565b80601f016020809104026020016040519081016040528092919081815260200182805461079390613f8b565b80156107e05780601f106107b5576101008083540402835291602001916107e0565b820191906000526020600020905b8154815290600101906020018083116107c357829003601f168201915b5050505050908060020154908060030154908060040154905085565b610814600080516020614ac883398151915233612b59565b806108225750610822612b7e565b6108475760405162461bcd60e51b815260040161083e90613fbf565b60405180910390fd5b61086161085c6101a08301610180840161385d565b612baf565b610876610871602083018361385d565b612bea565b600060066001600a8361088c602087018761385d565b6001600160801b03191681526020810191909152604001600020546108b1919061400c565b815481106108c1576108c161401f565b906000526020600020906005020190506003600201548260a001356003600101546108ec9190614035565b11156109495760405162461bcd60e51b815260206004820152602660248201527f4973737565723a20496e73756666696369656e742073686172657320617574686044820152651bdc9a5e995960d21b606482015260840161083e565b80600401548260a0013582600301546109629190614035565b11156109c35760405162461bcd60e51b815260206004820152602a60248201527f53746f636b436c6173733a20496e73756666696369656e742073686172657320604482015269185d5d1a1bdc9a5e995960b21b606482015260840161083e565b600980549060006109d383614048565b90915550506009546040516315d8e5e760e31b815273__$099b2b4dcca745b6363fe801534306d3af$__9163aec72f3891610a2191908690600b90600c906008906003908a906004016141bc565b60006040518083038186803b158015610a3957600080fd5b505af4158015610a4d573d6000803e3d6000fd5b505050505050565b610a6d600080516020614ac883398151915233612b59565b80610a7b5750610a7b612b7e565b610a975760405162461bcd60e51b815260040161083e90613fbf565b610aa761085c602084018461385d565b610aba610871604084016020850161385d565b610ae081610acb602085018561385d565b610adb604086016020870161385d565b612c25565b60098054906000610af083614048565b919050555073__$099b2b4dcca745b6363fe801534306d3af$__63b5aa02f08360095484600b600c6008600360066001600a60008e6020016020810190610b37919061385d565b6001600160801b0319168152602081019190915260400160002054610b5c919061400c565b81548110610b6c57610b6c61401f565b90600052602060002090600502016040518963ffffffff1660e01b8152600401610a21989796959493929190614474565b610ba5612b7e565b610bc15760405162461bcd60e51b815260040161083e906144ff565b610beb7fdf8b4c520ffe197c5343c6f5aec59570151ef9a492f2c624fd45ddde6135ec4282612d02565b50565b60008181548110610bfe57600080fd5b60009182526020909120600390910201805460018201805460809290921b935090610c2890613f8b565b80601f0160208091040260200160405190810160405280929190818152602001828054610c5490613f8b565b8015610ca15780601f10610c7657610100808354040283529160200191610ca1565b820191906000526020600020905b815481529060010190602001808311610c8457829003601f168201915b505050505090806002018054610cb690613f8b565b80601f0160208091040260200160405190810160405280929190818152602001828054610ce290613f8b565b8015610d2f5780601f10610d0457610100808354040283529160200191610d2f565b820191906000526020600020905b815481529060010190602001808311610d1257829003601f168201915b5050505050905083565b6000610d4482612d64565b92915050565b610d62600080516020614ac883398151915233612b59565b80610d705750610d70612b7e565b610d8c5760405162461bcd60e51b815260040161083e90613fbf565b610d9581612d86565b610d9e82612baf565b610da781612db8565b6001600160a01b0316600090815260016020526040902080546001600160801b03191660809290921c919091179055565b610de182612d64565b610dea81612e07565b610df48383612e11565b505050565b6001600160801b031981166000908152600a602052604081205460609082908190819015610f79576001600160801b031986166000908152600a6020526040812054600690610e4a9060019061400c565b81548110610e5a57610e5a61401f565b90600052602060002090600502016040518060a00160405290816000820160009054906101000a900460801b6001600160801b0319166001600160801b0319168152602001600182018054610eae90613f8b565b80601f0160208091040260200160405190810160405280929190818152602001828054610eda90613f8b565b8015610f275780601f10610efc57610100808354040283529160200191610f27565b820191906000526020600020905b815481529060010190602001808311610f0a57829003601f168201915b5050505050815260200160028201548152602001600382015481526020016004820154815250509050806000015181602001518260400151836060015184608001519550955095509550955050610f95565b5050604080516020810190915260008082529350915082905080805b91939590929450565b803515801590610fb15750602081013515155b8015610fcb57506000610fc76040830183614536565b9050115b6110175760405162461bcd60e51b815260206004820152601d60248201527f496e76616c69642053656564696e672053686172657320506172616d73000000604482015260640161083e565b8035600555602081013560045560005b6110346040830183614536565b905081101561115757600061104c6040840184614536565b8381811061105c5761105c61401f565b611072926020606090920201908101915061385d565b905061107d81612bea565b6001600160801b031981166000908152600a60205260408120546110a39060019061400c565b90506110b26040850185614536565b848181106110c2576110c261401f565b90506060020160200135600682815481106110df576110df61401f565b60009182526020909120600460059092020101556111006040850185614536565b848181106111105761111061401f565b905060600201604001356006828154811061112d5761112d61401f565b9060005260206000209060050201600301819055505050808061114f90614048565b915050611027565b5050565b611173600080516020614ac883398151915233612b59565b806111815750611181612b7e565b61119d5760405162461bcd60e51b815260040161083e90613fbf565b6111a684612baf565b6111af83612bea565b600980549060006111bf83614048565b90915550506001600160801b03198085166000908152600b6020908152604080832086851684528252918290208251608080820185528254901b90941684526001810154918401919091526002810154918301919091526003015464ffffffffff16606082015261122f81612e73565b60095460405163a453f4bf60e01b815273__$099b2b4dcca745b6363fe801534306d3af$__9163a453f4bf9161126f9190879087906008906004016145c6565b60006040518083038186803b15801561128757600080fd5b505af415801561129b573d6000803e3d6000fd5b505050505050505050565b6112be600080516020614ac883398151915233612b59565b806112cc57506112cc612b7e565b6112e85760405162461bcd60e51b815260040161083e90613fbf565b6112f861085c602084018461385d565b61130b610871604084016020850161385d565b6009805490600061131b83614048565b90915550506040805160e081018252600954815260208082018490526000928201906113499086018661385d565b6001600160801b031916815260200184602001602081019061136b919061385d565b6001600160801b031916815260200161138a606086016040870161385d565b6001600160801b03191681526020016113a66060860186614600565b6113af91614649565b81526020016113c16080860186614656565b8080601f016020809104026020016040519081016040528093929190818152602001838380828437600081840152601f19601f82011690508083019250505050505050815250905073__$099b2b4dcca745b6363fe801534306d3af$__63fc431cee82600b600c6008600360066001600a60008d6020016020810190611447919061385d565b6001600160801b031916815260208101919091526040016000205461146c919061400c565b8154811061147c5761147c61401f565b90600052602060002090600502016040518763ffffffff1660e01b81526004016114ab96959493929190614717565b60006040518083038186803b1580156114c357600080fd5b505af41580156114d7573d6000803e3d6000fd5b50505050505050565b6114e8612b7e565b6115045760405162461bcd60e51b815260040161083e906144ff565b61150d84612e98565b6040805160a0810182526001600160801b0319868116825260208201868152928201859052600060608301819052608080840186905260068054600181018255925283517ff652222313e28459528d920b65115c16c04f3efc82aaedc97be59f3f377c0d3f60059093029283018054909416911c1782559251919290917ff652222313e28459528d920b65115c16c04f3efc82aaedc97be59f3f377c0d40909101906115b99082614799565b506040828101516002830155606083015160038301556080909201516004909101556006546001600160801b031986166000908152600a60205282902055518290611605908590614858565b604051908190038120838252906001600160801b03198716907fc7496d70298fcc793e1d058617af680232585e302f0185b14bba498b247a9c1d9060200160405180910390a450505050565b600080805b60005481101561172b5760005b60065481101561171857600c60000160008084815481106116865761168661401f565b600091825260208083206003929092029091015460801b6001600160801b0319168352820192909252604001812060068054919291849081106116cb576116cb61401f565b600091825260208083206005929092029091015460801b6001600160801b03191683528201929092526040019020546117049084614035565b92508061171081614048565b915050611663565b508061172381614048565b915050611656565b50919050565b611749600080516020614ac883398151915233612b59565b806117575750611757612b7e565b6117735760405162461bcd60e51b815260040161083e90613fbf565b61177c86612baf565b61178585612baf565b61178e84612bea565b6009805490600061179e83614048565b919050555060006040518060e00160405280886001600160801b0319168152602001876001600160801b0319168152602001866001600160801b03191681526020018515158152602001848152602001838152602001600954815250905073__$099b2b4dcca745b6363fe801534306d3af$__63fbe4f4b882600b600c6008600360066001600a60008f6001600160801b0319166001600160801b031916815260200190815260200160002054611855919061400c565b815481106118655761186561401f565b6000918252602091829020604080516001600160e01b031960e08c901b16815289516001600160801b03199081166004830152948a0151851660248201529089015190931660448401526060880151151560648401526080880151608484015260a088015160a484015260c09097015160c483015260e482019590955261010481019390935261012483019190915261014482015260059091029091016101648201526101840160006040518083038186803b15801561192457600080fd5b505af4158015611938573d6000803e3d6000fd5b5050505050505050505050565b6007818154811061195557600080fd5b60009182526020909120015460801b905081565b611971612b7e565b61198d5760405162461bcd60e51b815260040161083e906144ff565b610beb7fdf8b4c520ffe197c5343c6f5aec59570151ef9a492f2c624fd45ddde6135ec4282612e11565b6119cf600080516020614ac883398151915233612b59565b806119dd57506119dd612b7e565b6119f95760405162461bcd60e51b815260040161083e90613fbf565b611a0961085c602083018361385d565b611a1c610871604083016020840161385d565b60098054906000611a2c83614048565b919050555073__$099b2b4dcca745b6363fe801534306d3af$__63e713a5a982600954600b600c6008600360066001600a60008c6020016020810190611a72919061385d565b6001600160801b0319168152602081019190915260400160002054611a97919061400c565b81548110611aa757611aa761401f565b90600052602060002090600502016040518863ffffffff1660e01b8152600401611ad79796959493929190614874565b60006040518083038186803b158015611aef57600080fd5b505af4158015611b03573d6000803e3d6000fd5b5050505050565b604080516060810182526001600160801b031985811680835260006020840181905292840186905260038054909216608088901c179091556004829055600585905591517fb8cbde9f597f493a1b4d1c4db5fded9cd26293080750a0df6b7e7097f4b680dd9190a2505050565b610beb81612ed2565b6000611b8c8383612edc565b9392505050565b6000611b8c8383612b59565b611ba7612b7e565b611bc35760405162461bcd60e51b815260040161083e906144ff565b8a89148015611bd157508887145b8015611bdc57508685145b8015611be757508483145b8015611bf257508281145b611c4d5760405162461bcd60e51b815260206004820152602660248201527f496e70757420617272617973206d7573742068617665207468652073616d65206044820152650d8cadccee8d60d31b606482015260840161083e565b60005b8b811015611f4357611c828d8d83818110611c6d57611c6d61401f565b905060200201602081019061085c919061385d565b611cac898983818110611c9757611c9761401f565b9050602002016020810190610871919061385d565b60405180608001604052808a8a84818110611cc957611cc961401f565b9050602002016020810190611cde919061385d565b6001600160801b0319168152602001888884818110611cff57611cff61401f565b905060200201358152602001868684818110611d1d57611d1d61401f565b905060200201358152602001848484818110611d3b57611d3b61401f565b9050602002016020810190611d5091906148b8565b64ffffffffff169052600b60008f8f85818110611d6f57611d6f61401f565b9050602002016020810190611d84919061385d565b6001600160801b0319166001600160801b031916815260200190815260200160002060008d8d85818110611dba57611dba61401f565b9050602002016020810190611dcf919061385d565b6001600160801b03199081168252602080830193909352604091820160009081208551815490931660809390931c9290921782559284015160018201559083015160028201556060909201516003909201805464ffffffffff191664ffffffffff90931692909217909155600c908e8e84818110611e4f57611e4f61401f565b9050602002016020810190611e64919061385d565b6001600160801b0319166001600160801b031916815260200190815260200160002060008a8a84818110611e9a57611e9a61401f565b9050602002016020810190611eaf919061385d565b6001600160801b031916815260208101919091526040016000208b8b83818110611edb57611edb61401f565b9050602002016020810190611ef0919061385d565b81546001808201845560009384526020909320600282040180546001600160801b03949092166010026101000a9384021990911660809290921c9290920217905580611f3b81614048565b915050611c50565b50505050505050505050505050565b611f5a612b7e565b611f765760405162461bcd60e51b815260040161083e906144ff565b610beb600080516020614ac883398151915282612e11565b60088181548110611f9e57600080fd5b906000526020600020016000915090508054611fb990613f8b565b80601f0160208091040260200160405190810160405280929190818152602001828054611fe590613f8b565b80156120325780601f1061200757610100808354040283529160200191612032565b820191906000526020600020905b81548152906001019060200180831161201557829003601f168201915b505050505081565b6001600160801b03198083166000908152600c6020908152604080832093851683529281528282208054845181840281018401909552808552929384938493849391908301828280156120d957602002820191906000526020600020906000905b82829054906101000a900460801b6001600160801b03191681526020019060100190602082600f0104928301926001038202915080841161209b5790505b505050505090506000806000805b84518110156121bc576001600160801b03198a166000908152600b602052604081208651829088908590811061211f5761211f61401f565b60200260200101516001600160801b0319166001600160801b031916815260200190815260200160002090508060020154816001015461215f91906148df565b6121699086614035565b945080600101548461217b9190614035565b600382015490945064ffffffffff80851691161161219957826121a6565b600381015464ffffffffff165b92505080806121b490614048565b9150506120e7565b5091955093509150509250925092565b6001600160a01b03811660009081526001602052604081205460801b6001600160801b0319166122355760405162461bcd60e51b8152602060048201526014602482015273139bc81cdd185ad95a1bdb19195c88199bdd5b9960621b604482015260640161083e565b506001600160a01b031660009081526001602052604090205460801b90565b61225c612b7e565b6122785760405162461bcd60e51b815260040161083e906144ff565b610beb600080516020614ac883398151915282612d02565b612298612b7e565b6122b45760405162461bcd60e51b815260040161083e906144ff565b6004548410156123425760405162461bcd60e51b815260206004820152604d60248201527f496e73756666696369656e74497373756572536861726573417574686f72697a60448201527f65643a207368617265735f6973737565642065786365656473206e657753686160648201526c1c995cd05d5d1a1bdc9a5e9959609a1b608482015260a40161083e565b6009805490600061235283614048565b919050555061236a6009548585858560036008612f01565b50505050565b612378612b7e565b6123945760405162461bcd60e51b815260040161083e906144ff565b60408051602081019091526001600160801b031991821681526007805460018101825560009190915290517fa66cc928b5edb82af9bd49922954155ab7b0942694bea4ce44661d9a8736c688909101805490921660809190911c179055565b61240b600080516020614ac883398151915233612b59565b806124195750612419612b7e565b6124355760405162461bcd60e51b815260040161083e90613fbf565b61244561085c602085018561385d565b612458610871604085016020860161385d565b6009805490600061246883614048565b90915550506040805160e081018252600954815260208082018590526000928201906124969087018761385d565b6001600160801b03191681526020018560200160208101906124b8919061385d565b6001600160801b03191681526020016124d7606087016040880161385d565b6001600160801b03191681526020016124f36060870187614600565b6124fc91614649565b815260200161250e6080870187614656565b8080601f016020809104026020016040519081016040528093929190818152602001838380828437600081840152601f19601f82011690508083019250505050505050815250905073__$099b2b4dcca745b6363fe801534306d3af$__63c028a48e8284600b600c6008600360066001600a60008f6020016020810190612595919061385d565b6001600160801b03191681526020810191909152604001600020546125ba919061400c565b815481106125ca576125ca61401f565b90600052602060002090600502016040518863ffffffff1660e01b81526004016125fa97969594939291906148f6565b60006040518083038186803b15801561261257600080fd5b505af4158015612626573d6000803e3d6000fd5b5050505050505050565b6000610d4482612f52565b612653600080516020614ac883398151915233612b59565b806126615750612661612b7e565b61267d5760405162461bcd60e51b815260040161083e90613fbf565b61268681612d86565b61268f82612baf565b6001600160a01b0316600090815260016020526040902080546001600160801b031916905550565b6126c082612d64565b6126c981612e07565b610df48383612d02565b6126db612b7e565b6126f75760405162461bcd60e51b815260040161083e906144ff565b61270083612f76565b604080516060810182526001600160801b03198581168252602082018581529282018490526000805460018101825590805282517f290decd9548b62a8d60345a988386fc84ba6bc95484008f6362f93160ef3e5636003909202918201805490931660809190911c1782559251919290917f290decd9548b62a8d60345a988386fc84ba6bc95484008f6362f93160ef3e564909101906127a09082614799565b50604082015160028201906127b59082614799565b5050600080546001600160801b03198616808352600260205260408084209290925590519092507f53df47344d1cdf2ddb4901af5df61e37e14606bb7c8cc004d65c7c83ab3d06939190a2505050565b61280d612b7e565b6128295760405162461bcd60e51b815260040161083e906144ff565b6001600160801b031985166000908152600a60205260408120546006906128529060019061400c565b815481106128625761286261401f565b9060005260206000209060050201905061287b86612bea565b6005548511156129285760405162461bcd60e51b815260206004820152606660248201527f496e73756666696369656e7453746f636b436c6173735368617265734175746860448201527f6f72697a65643a2073746f636b20636c61737320617574686f72697a6564207360648201527f68617265732065786365656473206973737565722073686172657320617574686084820152651bdc9a5e995960d21b60a482015260c40161083e565b6009805490600061293883614048565b9190505550610a4d60095486868686866008612fb0565b6001600160801b03198116600090815260026020526040812054606090819015612b30576001600160801b03198416600090815260026020526040812054819061299b9060019061400c565b815481106129ab576129ab61401f565b90600052602060002090600302016040518060600160405290816000820160009054906101000a900460801b6001600160801b0319166001600160801b03191681526020016001820180546129ff90613f8b565b80601f0160208091040260200160405190810160405280929190818152602001828054612a2b90613f8b565b8015612a785780601f10612a4d57610100808354040283529160200191612a78565b820191906000526020600020905b815481529060010190602001808311612a5b57829003601f168201915b50505050508152602001600282018054612a9190613f8b565b80601f0160208091040260200160405190810160405280929190818152602001828054612abd90613f8b565b8015612b0a5780601f10612adf57610100808354040283529160200191612b0a565b820191906000526020600020905b815481529060010190602001808311612aed57829003601f168201915b505050505081525050905080600001518160200151826040015193509350935050612b52565b5050604080516020808201835260008083528351918201909352828152919250905b9193909250565b6000828152600080516020614aa883398151915260205260408120611b8c9083612fec565b6000612baa7fdf8b4c520ffe197c5343c6f5aec59570151ef9a492f2c624fd45ddde6135ec4233612b59565b905090565b6001600160801b031981166000908152600260205260408120549003610beb578060405163b4586dfb60e01b815260040161083e9190613b5a565b6001600160801b031981166000908152600a60205260408120549003610beb5780604051630b2b152360e21b815260040161083e9190613b5a565b8251600003612c47576040516309ef2e0760e01b815260040160405180910390fd5b600083600081518110612c5c57612c5c61401f565b6020908102919091018101516001600160801b03198086166000908152600b8452604080822083851683528552908190208151608080820184528254901b909316835260018101549483018590526002810154918301919091526003015464ffffffffff166060820152909250901580612ce4575080516001600160801b0319848116911614155b15611b0357604051632b2eaacf60e21b815260040160405180910390fd5b6000828152600080516020614aa883398151915260205260409020612d27908261300e565b5060405133906001600160a01b0383169084907ff6391f5c32d9c69d2a47ea670b442974b53935d1edc7fd64eb21e047a839171b90600090a45050565b6000908152600080516020614aa8833981519152602052604090206002015490565b6001600160a01b038116610beb57604051633146914d60e11b81526001600160a01b038216600482015260240161083e565b6001600160a01b03811660009081526001602052604090205460801b6001600160801b03191615610beb57604051633c4d084f60e11b81526001600160a01b038216600482015260240161083e565b610beb8133613023565b6000828152600080516020614aa883398151915260205260409020612e369082613085565b5060405133906001600160a01b0383169084907f2f8788117e7eff1d82e926ec794901d17c78024a50270940304540a733656f0d90600090a45050565b8060200151600003610beb57604051632b2eaacf60e21b815260040160405180910390fd5b6001600160801b031981166000908152600a602052604090205415610beb5780604051631339dd8760e21b815260040161083e9190613b5a565b610beb8133612d02565b6000828152600080516020614aa883398151915260205260408120611b8c908361309a565b8154600090612f1c908990899089908990899060801b6130a6565b9050868360020181905550612626600182604051602001612f3d91906149cc565b60405160208183030381529060405284613153565b6000818152600080516020614aa883398151915260205260408120610d44906131b1565b6001600160801b0319811660009081526002602052604090205415610beb57806040516333270c6160e01b815260040161083e9190613b5a565b8154600090612fcb908990899089908990899060801b6131bb565b9050868360040181905550612626600282604051602001612f3d91906149cc565b6001600160a01b03811660009081526001830160205260408120541515611b8c565b6000611b8c836001600160a01b038416613268565b61302d8282612b59565b61115757613043816001600160a01b031661332d565b61304e83602061333f565b60405160200161305f9291906149df565b60408051601f198184030181529082905262461bcd60e51b825261083e91600401613d91565b6000611b8c836001600160a01b03841661347d565b6000611b8c83836134c0565b6130e96040518060c0016040528060006001600160801b031916815260200160608152602001600081526020016060815260200160608152602001606081525090565b60006130f5838961350c565b90506040518060c00160405280826001600160801b0319168152602001604051806060016040528060268152602001614ae8602691398152602001888152602001878152602001868152602001858152509150509695505050505050565b80546001810182556000828152602090200161316f8382614799565b5080546040517f9f88fb156974def70024c0bee5f2fefd94c4f8141b6468bd9e49eb0425639845916131a49186908690614a54565b60405180910390a1505050565b6000610d44825490565b6131fe6040518060c0016040528060006001600160801b031916815260200160608152602001600081526020016060815260200160608152602001606081525090565b600061320a838961350c565b90506040518060c00160405280826001600160801b03191681526020016040518060600160405280602b8152602001614b0e602b91398152602001888152602001878152602001868152602001858152509150509695505050505050565b600081815260018301602052604081205480156133265783546000908590600019810190811061329a5761329a61401f565b90600052602060002001549050808560000160018403815481106132c0576132c061401f565b60009182526020808320909101929092559182526001860190526040902081905583548490806132f2576132f2614a91565b6001900381819060005260206000200160009055905583600101600084815260200190815260200160002060009055600191505b5092915050565b6060610d446001600160a01b03831660145b60011b60020160606000826001600160401b038111156133615761336161364a565b6040519080825280601f01601f19166020018201604052801561338b576020820181803683370190505b509050600360fc1b816000815181106133a6576133a661401f565b60200101906001600160f81b031916908160001a905350600f60fb1b816001815181106133d5576133d561401f565b60200101906001600160f81b031916908160001a9053505b600283111561345e57600019909201916f181899199a1a9b1b9c1cb0b131b232b360811b600f8516601081106134255761342561401f565b1a60f81b81848151811061343b5761343b61401f565b60200101906001600160f81b031916908160001a905350600484901c93506133ed565b8315611b8c576040516355a04ff160e11b815260040160405180910390fd5b6000818152600183016020526040812054610d44575081546001808201845560008481526020808220909301849055845493815293810190915260409092205590565b815460009082106134e45760405163e637bf3b60e01b815260040160405180910390fd5b8260000182815481106134f9576134f961401f565b9060005260206000200154905092915050565b604080516001600160801b0319939093166020808501919091524260308501524460508501526070808501939093528151808503909301835260909093019052805191012090565b60006020828403121561356657600080fd5b5035919050565b60005b83811015613588578181015183820152602001613570565b50506000910152565b600081518084526135a981602086016020860161356d565b601f01601f19169290920160200192915050565b6001600160801b03198616815260a0602082015260006135e060a0830187613591565b604083019590955250606081019290925260809091015292915050565b60006020828403121561360f57600080fd5b81356001600160401b0381111561362557600080fd5b82016102208185031215611b8c57600080fd5b600060a0828403121561172b57600080fd5b634e487b7160e01b600052604160045260246000fd5b604051601f8201601f191681016001600160401b03811182821017156136885761368861364a565b604052919050565b60006001600160401b038211156136a9576136a961364a565b5060051b60200190565b80356001600160801b0319811681146136cb57600080fd5b919050565b600080604083850312156136e357600080fd5b82356001600160401b03808211156136fa57600080fd5b61370686838701613638565b935060209150818501358181111561371d57600080fd5b85019050601f8101861361373057600080fd5b803561374361373e82613690565b613660565b81815260059190911b8201830190838101908883111561376257600080fd5b928401925b8284101561378757613778846136b3565b82529284019290840190613767565b80955050505050509250929050565b80356001600160a01b03811681146136cb57600080fd5b6000602082840312156137bf57600080fd5b611b8c82613796565b6001600160801b0319841681526060602082015260006137eb6060830185613591565b82810360408401526137fd8185613591565b9695505050505050565b6000806040838503121561381a57600080fd5b613823836136b3565b915061383160208401613796565b90509250929050565b6000806040838503121561384d57600080fd5b8235915061383160208401613796565b60006020828403121561386f57600080fd5b611b8c826136b3565b60006020828403121561388a57600080fd5b81356001600160401b038111156138a057600080fd5b820160608185031215611b8c57600080fd5b600082601f8301126138c357600080fd5b81356001600160401b038111156138dc576138dc61364a565b6138ef601f8201601f1916602001613660565b81815284602083860101111561390457600080fd5b816020850160208301376000918101602001919091529392505050565b600061392f61373e84613690565b8381529050602080820190600585901b84018681111561394e57600080fd5b845b818110156139895780356001600160401b0381111561396f5760008081fd5b61397b898289016138b2565b855250928201928201613950565b505050509392505050565b600082601f8301126139a557600080fd5b611b8c83833560208501613921565b600080600080608085870312156139ca57600080fd5b6139d3856136b3565b93506139e1602086016136b3565b92506139ef604086016136b3565b915060608501356001600160401b03811115613a0a57600080fd5b613a1687828801613994565b91505092959194509250565b60008060408385031215613a3557600080fd5b82356001600160401b03811115613a4b57600080fd5b613a5785828601613638565b95602094909401359450505050565b60008060008060808587031215613a7c57600080fd5b613a85856136b3565b935060208501356001600160401b03811115613aa057600080fd5b613aac878288016138b2565b949794965050505060408301359260600135919050565b60008060008060008060c08789031215613adc57600080fd5b613ae5876136b3565b9550613af3602088016136b3565b9450613b01604088016136b3565b935060608701358015158114613b1657600080fd5b9598949750929560808101359460a0909101359350915050565b60008060408385031215613b4357600080fd5b613b4c836136b3565b9150613831602084016136b3565b6001600160801b031991909116815260200190565b600060208284031215613b8157600080fd5b81356001600160401b03811115613b9757600080fd5b613ba384828501613638565b949350505050565b600080600060608486031215613bc057600080fd5b613bc9846136b3565b925060208401359150613bde60408501613796565b90509250925092565b60008060408385031215613bfa57600080fd5b50508035926020909101359150565b60008083601f840112613c1b57600080fd5b5081356001600160401b03811115613c3257600080fd5b6020830191508360208260051b8501011115613c4d57600080fd5b9250929050565b60008060008060008060008060008060008060c08d8f031215613c7657600080fd5b6001600160401b038d351115613c8b57600080fd5b613c988e8e358f01613c09565b909c509a506001600160401b0360208e01351115613cb557600080fd5b613cc58e60208f01358f01613c09565b909a5098506001600160401b0360408e01351115613ce257600080fd5b613cf28e60408f01358f01613c09565b90985096506001600160401b0360608e01351115613d0f57600080fd5b613d1f8e60608f01358f01613c09565b90965094506001600160401b0360808e01351115613d3c57600080fd5b613d4c8e60808f01358f01613c09565b90945092506001600160401b0360a08e01351115613d6957600080fd5b613d798e60a08f01358f01613c09565b81935080925050509295989b509295989b509295989b565b602081526000611b8c6020830184613591565b60008060008060808587031215613dba57600080fd5b8435935060208501356001600160401b0380821115613dd857600080fd5b613de488838901613994565b94506040870135915080821115613dfa57600080fd5b613e06888389016138b2565b93506060870135915080821115613e1c57600080fd5b50613a16878288016138b2565b600080600060608486031215613e3e57600080fd5b83356001600160401b03811115613e5457600080fd5b613e6086828701613638565b9660208601359650604090950135949350505050565b600080600060608486031215613e8b57600080fd5b613e94846136b3565b925060208401356001600160401b0380821115613eb057600080fd5b613ebc878388016138b2565b93506040860135915080821115613ed257600080fd5b50613edf868287016138b2565b9150509250925092565b600080600080600060a08688031215613f0157600080fd5b613f0a866136b3565b94506020860135935060408601356001600160401b0380821115613f2d57600080fd5b613f3989838a01613994565b94506060880135915080821115613f4f57600080fd5b613f5b89838a016138b2565b93506080880135915080821115613f7157600080fd5b50613f7e888289016138b2565b9150509295509295909350565b600181811c90821680613f9f57607f821691505b60208210810361172b57634e487b7160e01b600052602260045260246000fd5b6020808252601b908201527f446f6573206e6f742068617665206f70657261746f7220726f6c650000000000604082015260600190565b634e487b7160e01b600052601160045260246000fd5b81810381811115610d4457610d44613ff6565b634e487b7160e01b600052603260045260246000fd5b80820180821115610d4457610d44613ff6565b60006001820161405a5761405a613ff6565b5060010190565b6000808335601e1984360301811261407857600080fd5b83016020810192503590506001600160401b0381111561409757600080fd5b8060051b3603821315613c4d57600080fd5b8183526000602080850194508260005b858110156140e6576001600160801b03196140d3836136b3565b16875295820195908201906001016140b9565b509495945050505050565b6000808335601e1984360301811261410857600080fd5b83016020810192503590506001600160401b0381111561412757600080fd5b803603821315613c4d57600080fd5b81835281816020850137506000828201602090810191909152601f909101601f19169091010190565b81835260006020808501808196508560051b810191508460005b878110156141af57828403895261419082886140f1565b61419b868284614136565b9a87019a9550505090840190600101614179565b5091979650505050505050565b87815260e060208201526141e460e082016141d6896136b3565b6001600160801b0319169052565b60006141f2602089016136b3565b6001600160801b03191661010083015260408801356101208301526060880135610140830152608088013561016083015260a088013561018083015261423a60c089016136b3565b6001600160801b0319166101a083015260e08801356101c0830152614263610100890189614061565b6101e06102208186015261427c610300860183856140a9565b925061428c6101208c018c6140f1565b925060df196102008188870301818901526142a8868685614136565b95506142b86101408f018f614061565b9550925081888703016102208901526142d286868561415f565b95506142e26101608f018f6140f1565b9550925081888703016102408901526142fc868685614136565b955061430b6101808f016136b3565b6001600160801b031981166102608a0152945061432c6101a08f018f6140f1565b955092508188870301610280890152614346868685614136565b95506143566101c08f018f6140f1565b9550925081888703016102a0890152614370868685614136565b955061437e848f018f6140f1565b9550935081888703016102c0890152614398868686614136565b95506143a6818f018f614061565b955093505080878603016102e088015250506143c383838361415f565b604086019a909a52505050506060810194909452608084019290925260a083015260c09091015292915050565b60006001600160801b031980614405846136b3565b16845280614415602085016136b3565b16602085015280614428604085016136b3565b1660408501525061443c6060830183614061565b60a0606086015261445160a08601828461415f565b91505061446160808401846140f1565b85830360808701526137fd838284614136565b60006101008083526144888184018c6143f0565b60208481018c905284820360408601528a518083528b82019350909182019060005b818110156144d05784516001600160801b031916835293830193918301916001016144aa565b50506060850199909952505050608081019490945260a084019290925260c083015260e0909101529392505050565b60208082526018908201527f446f6573206e6f7420686176652061646d696e20726f6c650000000000000000604082015260600190565b6000808335601e1984360301811261454d57600080fd5b8301803591506001600160401b0382111561456757600080fd5b6020019150606081023603821315613c4d57600080fd5b600081518084526020808501808196508360051b8101915082860160005b858110156141af5782840389526145b4848351613591565b9885019893509084019060010161459c565b8481526001600160801b0319841660208201526080604082015260006145ef608083018561457e565b905082606083015295945050505050565b6000808335601e1984360301811261461757600080fd5b8301803591506001600160401b0382111561463157600080fd5b6020019150600581901b3603821315613c4d57600080fd5b6000611b8c368484613921565b6000808335601e1984360301811261466d57600080fd5b8301803591506001600160401b0382111561468757600080fd5b602001915036819003821315613c4d57600080fd5b8051825260208101516020830152600060408201516001600160801b03198082166040860152806060850151166060860152806080850151166080860152505060a082015160e060a08501526146f560e085018261457e565b905060c083015184820360c086015261470e8282613591565b95945050505050565b60c08152600061472a60c083018961469c565b60208301979097525060408101949094526060840192909252608083015260a090910152919050565b601f821115610df457600081815260208120601f850160051c8101602086101561477a5750805b601f850160051c820191505b81811015610a4d57828155600101614786565b81516001600160401b038111156147b2576147b261364a565b6147c6816147c08454613f8b565b84614753565b602080601f8311600181146147fb57600084156147e35750858301515b600019600386901b1c1916600185901b178555610a4d565b600085815260208120601f198616915b8281101561482a5788860151825594840194600190910190840161480b565b50858210156148485787850151600019600388901b60f8161c191681555b5050505050600190811b01905550565b6000825161486a81846020870161356d565b9190910192915050565b60e08152600061488760e083018a6143f0565b60208301989098525060408101959095526060850193909352608084019190915260a083015260c090910152919050565b6000602082840312156148ca57600080fd5b813564ffffffffff81168114611b8c57600080fd5b8082028115828204841417610d4457610d44613ff6565b60e08152600061488760e083018a61469c565b6001600160801b03198151168252600060208083015160c08286015261493260c0860182613591565b905060408401516040860152606084015185820360608701528181518084528484019150848160051b850101858401935060005b8281101561499457601f19868303018452614982828651613591565b94870194938701939150600101614966565b506080880151955088810360808a01526149ae8187613591565b9550505050505060a083015184820360a086015261470e8282613591565b602081526000611b8c6020830184614909565b7f416363657373436f6e74726f6c3a206163636f756e7420000000000000000000815260008351614a1781601785016020880161356d565b7001034b99036b4b9b9b4b733903937b6329607d1b6017918401918201528351614a4881602884016020880161356d565b01602801949350505050565b8381526000600a8410614a7757634e487b7160e01b600052602160045260246000fd5b8360208301526060604083015261470e6060830184613591565b634e487b7160e01b600052603160045260246000fdfed3889cc5458b268d0544e5534672df1296288ca3f93cbd39bd6f497a5c622811523a704056dcd17bcf83bed8b68c59416dac1119be77755efe3bde0a64e46e0c54585f4953535545525f415554484f52495a45445f5348415245535f41444a5553544d454e5454585f53544f434b5f434c4153535f415554484f52495a45445f5348415245535f41444a5553544d454e54","linkReferences":{"src/lib/Stock.sol":{"StockLib":[{"start":2570,"length":20},{"start":2839,"length":20},{"start":4705,"length":20},{"start":5163,"length":20},{"start":6174,"length":20},{"start":6739,"length":20},{"start":9592,"length":20}]}}},"methodIdentifiers":{"acceptStock(bytes16,bytes16,bytes16,string[])":"3e4106f3","addAdmin(address)":"70480275","addOperator(address)":"9870d7fe","addWalletToStakeholder(bytes16,address)":"2629ac0f","adjustIssuerAuthorizedShares(uint256,string[],string,string)":"b6238cd1","adjustStockClassAuthorizedShares(bytes16,uint256,string[],string,string)":"efb87519","cancelStock((bytes16,bytes16,bytes16,string[],string),uint256)":"438fd5d8","createStakeholder(bytes16,string,string)":"d95a6be5","createStockClass(bytes16,string,uint256,uint256)":"4afd58fa","createStockLegendTemplate(bytes16)":"c1ad1d20","getActivePosition(bytes16,bytes16)":"63aefa5a","getAveragePosition(bytes16,bytes16)":"a1fc8196","getRoleAdmin(bytes32)":"248a9ca3","getRoleMember(bytes32,uint256)":"9010d07c","getRoleMemberCount(bytes32)":"ca15c873","getStakeholderById(bytes16)":"f908b949","getStakeholderIdByWallet(address)":"a9e9f32a","getStockClassById(bytes16)":"371dc885","getTotalActiveSecuritiesCount()":"4d21af64","getTotalNumberOfStakeholders()":"84266a7d","getTotalNumberOfStockClasses()":"6924e428","getTransactionsCount()":"578cb8f9","grantRole(bytes32,address)":"2f2ff15d","hasRole(bytes32,address)":"91d14854","initialize(bytes16,uint256,address)":"89ee70c6","issueStock((bytes16,bytes16,(uint256,uint256),uint256,uint256,bytes16,uint256,bytes16[],string,string[],string,bytes16,string,string,string,string[]))":"08748030","issuer()":"1d143848","nonce()":"affed0e0","reissueStock((bytes16,bytes16,bytes16,string[],string),bytes16[])":"0c22d6bb","removeAdmin(address)":"1785f53c","removeOperator(address)":"ac8a584a","removeWalletFromStakeholder(bytes16,address)":"d125ba8b","renounceRole(bytes32)":"8bb9c5bf","repurchaseStock((bytes16,bytes16,bytes16,string[],string),uint256,uint256)":"c93fed66","retractStockIssuance((bytes16,bytes16,bytes16,string[],string))":"7799960d","revokeRole(bytes32,address)":"d547741f","seedMultipleActivePositionsAndSecurityIds(bytes16[],bytes16[],bytes16[],uint256[],uint256[],uint40[])":"924a750e","seedSharesAuthorizedAndIssued(((uint256,uint256),(bytes16,uint256,uint256)[]))":"3cec69df","stakeholderIndex(bytes16)":"69197f4d","stakeholders(uint256)":"1d6b8b72","stockClassIndex(bytes16)":"c95f650e","stockClasses(uint256)":"013f7f4f","stockLegendTemplates(uint256)":"63e71c4c","transactions(uint256)":"9ace38c2","transferStock(bytes16,bytes16,bytes16,bool,uint256,uint256)":"61dc98b9","walletsPerStakeholder(address)":"c8acae86"},"id":50}