{"abi":[{"type":"function","name":"getTransactionsCount","inputs":[],"outputs":[{"name":"","type":"uint256","internalType":"uint256"}],"stateMutability":"view"},{"type":"function","name":"transactions","inputs":[{"name":"_idx","type":"uint256","internalType":"uint256"}],"outputs":[{"name":"","type":"bytes","internalType":"bytes"}],"stateMutability":"view"}],"bytecode":{"object":"0x608060405234801561001057600080fd5b5061021c806100206000396000f3fe608060405234801561001057600080fd5b50600436106100365760003560e01c8063578cb8f91461003b5780639ace38c214610070575b600080fd5b7f71f1fe694a9df70ef705bc11814f6781de2e3fa2c2b924be3586437aea382f5c546040519081526020015b60405180910390f35b61008361007e366004610165565b610090565b604051610067919061017e565b60607f71f1fe694a9df70ef705bc11814f6781de2e3fa2c2b924be3586437aea382f5c82815481106100c4576100c46101cc565b906000526020600020906002020160010180546100e0906101e2565b80601f016020809104026020016040519081016040528092919081815260200182805461010c906101e2565b80156101595780601f1061012e57610100808354040283529160200191610159565b820191906000526020600020905b81548152906001019060200180831161013c57829003601f168201915b50505050509050919050565b60006020828403121561017757600080fd5b5035919050565b600060208083528351808285015260005b818110156101ab5785810183015185820160400152820161018f565b506000604082860101526040601f19601f8301168501019250505092915050565b634e487b7160e01b600052603260045260246000fd5b600181811c908216806101f657607f821691505b60208210810361021657634e487b7160e01b600052602260045260246000fd5b5091905056","linkReferences":{}},"methodIdentifiers":{"getTransactionsCount()":"578cb8f9","transactions(uint256)":"9ace38c2"},"id":60}