{"abi":[{"type":"function","name":"acceptStock","inputs":[{"name":"stakeholderId","type":"bytes16","internalType":"bytes16"},{"name":"stockClassId","type":"bytes16","internalType":"bytes16"},{"name":"securityId","type":"bytes16","internalType":"bytes16"},{"name":"comments","type":"string[]","internalType":"string[]"}],"outputs":[],"stateMutability":"nonpayable"},{"type":"function","name":"addAdmin","inputs":[{"name":"addr","type":"address","internalType":"address"}],"outputs":[],"stateMutability":"nonpayable"},{"type":"function","name":"addOperator","inputs":[{"name":"addr","type":"address","internalType":"address"}],"outputs":[],"stateMutability":"nonpayable"},{"type":"function","name":"adjustIssuerAuthorizedShares","inputs":[{"name":"newSharesAuthorized","type":"uint256","internalType":"uint256"},{"name":"comments","type":"string[]","internalType":"string[]"},{"name":"boardApprovalDate","type":"string","internalType":"string"},{"name":"stockholderApprovalDate","type":"string","internalType":"string"}],"outputs":[],"stateMutability":"nonpayable"},{"type":"function","name":"adjustStockClassAuthorizedShares","inputs":[{"name":"stockClassId","type":"bytes16","internalType":"bytes16"},{"name":"newAuthorizedShares","type":"uint256","internalType":"uint256"},{"name":"comments","type":"string[]","internalType":"string[]"},{"name":"boardApprovalDate","type":"string","internalType":"string"},{"name":"stockholderApprovalDate","type":"string","internalType":"string"}],"outputs":[],"stateMutability":"nonpayable"},{"type":"function","name":"cancelStock","inputs":[{"name":"params","type":"tuple","internalType":"struct StockParams","components":[{"name":"stakeholder_id","type":"bytes16","internalType":"bytes16"},{"name":"stock_class_id","type":"bytes16","internalType":"bytes16"},{"name":"security_id","type":"bytes16","internalType":"bytes16"},{"name":"comments","type":"string[]","internalType":"string[]"},{"name":"reason_text","type":"string","internalType":"string"}]},{"name":"quantity","type":"uint256","internalType":"uint256"}],"outputs":[],"stateMutability":"nonpayable"},{"type":"function","name":"createStockClass","inputs":[{"name":"_id","type":"bytes16","internalType":"bytes16"},{"name":"_class_type","type":"string","internalType":"string"},{"name":"_price_per_share","type":"uint256","internalType":"uint256"},{"name":"_initial_share_authorized","type":"uint256","internalType":"uint256"}],"outputs":[],"stateMutability":"nonpayable"},{"type":"function","name":"createStockLegendTemplate","inputs":[{"name":"_id","type":"bytes16","internalType":"bytes16"}],"outputs":[],"stateMutability":"nonpayable"},{"type":"function","name":"getActivePosition","inputs":[{"name":"stakeholderId","type":"bytes16","internalType":"bytes16"},{"name":"securityId","type":"bytes16","internalType":"bytes16"}],"outputs":[{"name":"","type":"bytes16","internalType":"bytes16"},{"name":"","type":"uint256","internalType":"uint256"},{"name":"","type":"uint256","internalType":"uint256"},{"name":"","type":"uint40","internalType":"uint40"}],"stateMutability":"view"},{"type":"function","name":"getAveragePosition","inputs":[{"name":"stakeholderId","type":"bytes16","internalType":"bytes16"},{"name":"stockClassId","type":"bytes16","internalType":"bytes16"}],"outputs":[{"name":"","type":"uint256","internalType":"uint256"},{"name":"","type":"uint256","internalType":"uint256"},{"name":"","type":"uint40","internalType":"uint40"}],"stateMutability":"view"},{"type":"function","name":"getRoleAdmin","inputs":[{"name":"role","type":"bytes32","internalType":"bytes32"}],"outputs":[{"name":"","type":"bytes32","internalType":"bytes32"}],"stateMutability":"view"},{"type":"function","name":"getRoleMember","inputs":[{"name":"role","type":"bytes32","internalType":"bytes32"},{"name":"index","type":"uint256","internalType":"uint256"}],"outputs":[{"name":"","type":"address","internalType":"address"}],"stateMutability":"view"},{"type":"function","name":"getRoleMemberCount","inputs":[{"name":"role","type":"bytes32","internalType":"bytes32"}],"outputs":[{"name":"","type":"uint256","internalType":"uint256"}],"stateMutability":"view"},{"type":"function","name":"getStockClassById","inputs":[{"name":"_id","type":"bytes16","internalType":"bytes16"}],"outputs":[{"name":"","type":"bytes16","internalType":"bytes16"},{"name":"","type":"string","internalType":"string"},{"name":"","type":"uint256","internalType":"uint256"},{"name":"","type":"uint256","internalType":"uint256"},{"name":"","type":"uint256","internalType":"uint256"}],"stateMutability":"view"},{"type":"function","name":"getTotalActiveSecuritiesCount","inputs":[],"outputs":[{"name":"","type":"uint256","internalType":"uint256"}],"stateMutability":"view"},{"type":"function","name":"getTotalNumberOfStockClasses","inputs":[],"outputs":[{"name":"","type":"uint256","internalType":"uint256"}],"stateMutability":"view"},{"type":"function","name":"grantRole","inputs":[{"name":"role","type":"bytes32","internalType":"bytes32"},{"name":"account","type":"address","internalType":"address"}],"outputs":[],"stateMutability":"nonpayable"},{"type":"function","name":"hasRole","inputs":[{"name":"role","type":"bytes32","internalType":"bytes32"},{"name":"account","type":"address","internalType":"address"}],"outputs":[{"name":"","type":"bool","internalType":"bool"}],"stateMutability":"view"},{"type":"function","name":"issueStock","inputs":[{"name":"params","type":"tuple","internalType":"struct StockIssuanceParams","components":[{"name":"stock_class_id","type":"bytes16","internalType":"bytes16"},{"name":"stock_plan_id","type":"bytes16","internalType":"bytes16"},{"name":"share_numbers_issued","type":"tuple","internalType":"struct ShareNumbersIssued","components":[{"name":"starting_share_number","type":"uint256","internalType":"uint256"},{"name":"ending_share_number","type":"uint256","internalType":"uint256"}]},{"name":"share_price","type":"uint256","internalType":"uint256"},{"name":"quantity","type":"uint256","internalType":"uint256"},{"name":"vesting_terms_id","type":"bytes16","internalType":"bytes16"},{"name":"cost_basis","type":"uint256","internalType":"uint256"},{"name":"stock_legend_ids","type":"bytes16[]","internalType":"bytes16[]"},{"name":"issuance_type","type":"string","internalType":"string"},{"name":"comments","type":"string[]","internalType":"string[]"},{"name":"custom_id","type":"string","internalType":"string"},{"name":"stakeholder_id","type":"bytes16","internalType":"bytes16"},{"name":"board_approval_date","type":"string","internalType":"string"},{"name":"stockholder_approval_date","type":"string","internalType":"string"},{"name":"consideration_text","type":"string","internalType":"string"},{"name":"security_law_exemptions","type":"string[]","internalType":"string[]"}]}],"outputs":[],"stateMutability":"nonpayable"},{"type":"function","name":"issuer","inputs":[],"outputs":[{"name":"id","type":"bytes16","internalType":"bytes16"},{"name":"shares_issued","type":"uint256","internalType":"uint256"},{"name":"shares_authorized","type":"uint256","internalType":"uint256"}],"stateMutability":"view"},{"type":"function","name":"reissueStock","inputs":[{"name":"params","type":"tuple","internalType":"struct StockParams","components":[{"name":"stakeholder_id","type":"bytes16","internalType":"bytes16"},{"name":"stock_class_id","type":"bytes16","internalType":"bytes16"},{"name":"security_id","type":"bytes16","internalType":"bytes16"},{"name":"comments","type":"string[]","internalType":"string[]"},{"name":"reason_text","type":"string","internalType":"string"}]},{"name":"resulting_security_ids","type":"bytes16[]","internalType":"bytes16[]"}],"outputs":[],"stateMutability":"nonpayable"},{"type":"function","name":"removeAdmin","inputs":[{"name":"addr","type":"address","internalType":"address"}],"outputs":[],"stateMutability":"nonpayable"},{"type":"function","name":"removeOperator","inputs":[{"name":"addr","type":"address","internalType":"address"}],"outputs":[],"stateMutability":"nonpayable"},{"type":"function","name":"renounceRole","inputs":[{"name":"role","type":"bytes32","internalType":"bytes32"}],"outputs":[],"stateMutability":"nonpayable"},{"type":"function","name":"repurchaseStock","inputs":[{"name":"params","type":"tuple","internalType":"struct StockParams","components":[{"name":"stakeholder_id","type":"bytes16","internalType":"bytes16"},{"name":"stock_class_id","type":"bytes16","internalType":"bytes16"},{"name":"security_id","type":"bytes16","internalType":"bytes16"},{"name":"comments","type":"string[]","internalType":"string[]"},{"name":"reason_text","type":"string","internalType":"string"}]},{"name":"quantity","type":"uint256","internalType":"uint256"},{"name":"price","type":"uint256","internalType":"uint256"}],"outputs":[],"stateMutability":"nonpayable"},{"type":"function","name":"retractStockIssuance","inputs":[{"name":"params","type":"tuple","internalType":"struct StockParams","components":[{"name":"stakeholder_id","type":"bytes16","internalType":"bytes16"},{"name":"stock_class_id","type":"bytes16","internalType":"bytes16"},{"name":"security_id","type":"bytes16","internalType":"bytes16"},{"name":"comments","type":"string[]","internalType":"string[]"},{"name":"reason_text","type":"string","internalType":"string"}]}],"outputs":[],"stateMutability":"nonpayable"},{"type":"function","name":"revokeRole","inputs":[{"name":"role","type":"bytes32","internalType":"bytes32"},{"name":"account","type":"address","internalType":"address"}],"outputs":[],"stateMutability":"nonpayable"},{"type":"function","name":"seedMultipleActivePositionsAndSecurityIds","inputs":[{"name":"stakeholderIds","type":"bytes16[]","internalType":"bytes16[]"},{"name":"securityIds","type":"bytes16[]","internalType":"bytes16[]"},{"name":"stockClassIds","type":"bytes16[]","internalType":"bytes16[]"},{"name":"quantities","type":"uint256[]","internalType":"uint256[]"},{"name":"sharePrices","type":"uint256[]","internalType":"uint256[]"},{"name":"timestamps","type":"uint40[]","internalType":"uint40[]"}],"outputs":[],"stateMutability":"nonpayable"},{"type":"function","name":"seedSharesAuthorizedAndIssued","inputs":[{"name":"params","type":"tuple","internalType":"struct InitialShares","components":[{"name":"issuerInitialShares","type":"tuple","internalType":"struct IssuerInitialShares","components":[{"name":"shares_authorized","type":"uint256","internalType":"uint256"},{"name":"shares_issued","type":"uint256","internalType":"uint256"}]},{"name":"stockClassesInitialShares","type":"tuple[]","internalType":"struct StockClassInitialShares[]","components":[{"name":"id","type":"bytes16","internalType":"bytes16"},{"name":"shares_authorized","type":"uint256","internalType":"uint256"},{"name":"shares_issued","type":"uint256","internalType":"uint256"}]}]}],"outputs":[],"stateMutability":"nonpayable"},{"type":"function","name":"transferStock","inputs":[{"name":"transferorStakeholderId","type":"bytes16","internalType":"bytes16"},{"name":"transfereeStakeholderId","type":"bytes16","internalType":"bytes16"},{"name":"stockClassId","type":"bytes16","internalType":"bytes16"},{"name":"isBuyerVerified","type":"bool","internalType":"bool"},{"name":"quantity","type":"uint256","internalType":"uint256"},{"name":"share_price","type":"uint256","internalType":"uint256"}],"outputs":[],"stateMutability":"nonpayable"},{"type":"event","name":"RoleAdminChanged","inputs":[{"name":"role","type":"bytes32","indexed":true,"internalType":"bytes32"},{"name":"previousAdminRole","type":"bytes32","indexed":true,"internalType":"bytes32"},{"name":"newAdminRole","type":"bytes32","indexed":true,"internalType":"bytes32"}],"anonymous":false},{"type":"event","name":"RoleGranted","inputs":[{"name":"role","type":"bytes32","indexed":true,"internalType":"bytes32"},{"name":"account","type":"address","indexed":true,"internalType":"address"},{"name":"sender","type":"address","indexed":true,"internalType":"address"}],"anonymous":false},{"type":"event","name":"RoleRevoked","inputs":[{"name":"role","type":"bytes32","indexed":true,"internalType":"bytes32"},{"name":"account","type":"address","indexed":true,"internalType":"address"},{"name":"sender","type":"address","indexed":true,"internalType":"address"}],"anonymous":false},{"type":"event","name":"StockClassCreated","inputs":[{"name":"id","type":"bytes16","indexed":true,"internalType":"bytes16"},{"name":"classType","type":"string","indexed":true,"internalType":"string"},{"name":"pricePerShare","type":"uint256","indexed":true,"internalType":"uint256"},{"name":"initialSharesAuthorized","type":"uint256","indexed":false,"internalType":"uint256"}],"anonymous":false},{"type":"event","name":"TxCreated","inputs":[{"name":"index","type":"uint256","indexed":false,"internalType":"uint256"},{"name":"txType","type":"uint8","indexed":false,"internalType":"enum TxType"},{"name":"txData","type":"bytes","indexed":false,"internalType":"bytes"}],"anonymous":false},{"type":"error","name":"ActivePositionNotFound","inputs":[{"name":"stakeholderId","type":"bytes16","internalType":"bytes16"},{"name":"securityId","type":"bytes16","internalType":"bytes16"}]},{"type":"error","name":"EnumerableSet__IndexOutOfBounds","inputs":[]},{"type":"error","name":"InsufficientShares","inputs":[{"name":"available","type":"uint256","internalType":"uint256"},{"name":"required","type":"uint256","internalType":"uint256"}]},{"type":"error","name":"InvalidQuantityOrPrice","inputs":[{"name":"quantity","type":"uint256","internalType":"uint256"},{"name":"price","type":"uint256","internalType":"uint256"}]},{"type":"error","name":"InvalidStockClass","inputs":[{"name":"stock_class_id","type":"bytes16","internalType":"bytes16"}]},{"type":"error","name":"NoActivePositionFound","inputs":[]},{"type":"error","name":"NoIssuanceFound","inputs":[]},{"type":"error","name":"NoStakeholder","inputs":[{"name":"stakeholder_id","type":"bytes16","internalType":"bytes16"}]},{"type":"error","name":"StockClassAlreadyExists","inputs":[{"name":"stock_class_id","type":"bytes16","internalType":"bytes16"}]},{"type":"error","name":"UintUtils__InsufficientPadding","inputs":[]},{"type":"error","name":"UnverifiedBuyer","inputs":[]}],"bytecode":{"object":"0x608060405234801561001057600080fd5b5061592e80620000216000396000f3fe608060405234801561001057600080fd5b50600436106101da5760003560e01c80637048027511610104578063a1fc8196116100a2578063c93fed6611610071578063c93fed6614610474578063ca15c87314610487578063d547741f1461049a578063efb87519146104ad57600080fd5b8063a1fc819614610406578063ac8a584a1461043b578063b6238cd11461044e578063c1ad1d201461046157600080fd5b80639010d07c116100de5780639010d07c1461039257806391d14854146103bd578063924a750e146103e05780639870d7fe146103f357600080fd5b806370480275146103595780637799960d1461036c5780638bb9c5bf1461037f57600080fd5b80633cec69df1161017c5780634d21af641161014b5780634d21af64146102f157806361dc98b9146102f957806363aefa5a1461030c5780636924e4281461035157600080fd5b80633cec69df146102a55780633e4106f3146102b8578063438fd5d8146102cb5780634afd58fa146102de57600080fd5b80631d143848116101b85780631d1438481461021a578063248a9ca31461024d5780632f2ff15d1461026e578063371dc8851461028157600080fd5b806308748030146101df5780630c22d6bb146101f45780631785f53c14610207575b600080fd5b6101f26101ed3660046141b6565b6104c0565b005b6101f2610202366004614325565b610517565b6101f261021536600461439f565b610567565b6102226105b5565b604080516001600160801b031990941684526020840192909252908201526060015b60405180910390f35b61026061025b3660046143c8565b610604565b604051908152602001610244565b6101f261027c3660046143e1565b610615565b61029461028f36600461440d565b610636565b604051610244959493929190614478565b6101f26102b33660046144b8565b61065c565b6101f26102c63660046145f4565b610665565b6101f26102d9366004614662565b6106b9565b6101f26102ec3660046146a6565b610705565b610260610735565b6101f2610307366004614703565b610744565b61031f61031a366004614770565b61079c565b604080516001600160801b0319909516855260208501939093529183015264ffffffffff166060820152608001610244565b6102606107bc565b6101f261036736600461439f565b6107c6565b6101f261037a36600461479a565b610814565b6101f261038d3660046143c8565b61085f565b6103a56103a03660046147d6565b610868565b6040516001600160a01b039091168152602001610244565b6103d06103cb3660046143e1565b61087b565b6040519015158152602001610244565b6101f26103ee366004614843565b610887565b6101f261040136600461439f565b6108cd565b610419610414366004614770565b610909565b60408051938452602084019290925264ffffffffff1690820152606001610244565b6101f261044936600461439f565b610925565b6101f261045c366004614980565b610961565b6101f261046f36600461440d565b610991565b6101f2610482366004614a05565b6109be565b6102606104953660046143c8565b610a0b565b6101f26104a83660046143e1565b610a16565b6101f26104bb366004614a52565b610a32565b6104d86000805160206158bd83398151915233610a6a565b806104e657506104e6610a8f565b61050b5760405162461bcd60e51b815260040161050290614af4565b60405180910390fd5b61051481610abb565b50565b61052f6000805160206158bd83398151915233610a6a565b8061053d575061053d610a8f565b6105595760405162461bcd60e51b815260040161050290614af4565b6105638282610c91565b5050565b61056f610a8f565b61058b5760405162461bcd60e51b815260040161050290614b2b565b6105147fdf8b4c520ffe197c5343c6f5aec59570151ef9a492f2c624fd45ddde6135ec4282610d17565b6000806000806105c3610d79565b60408051606081018252825460801b6001600160801b0319168082526001840154602083018190526002909401549190920181905290969195509350915050565b600061060f82610d9d565b92915050565b61061e82610d9d565b61062781610dbf565b6106318383610dc9565b505050565b60006060600080600061064886610e2b565b945094509450945094505b91939590929450565b61051481610fef565b61067d6000805160206158bd83398151915233610a6a565b8061068b575061068b610a8f565b6106a75760405162461bcd60e51b815260040161050290614af4565b6106b3848484846111da565b50505050565b6106d16000805160206158bd83398151915233610a6a565b806106df57506106df610a8f565b6106fb5760405162461bcd60e51b815260040161050290614af4565b610563828261129d565b61070d610a8f565b6107295760405162461bcd60e51b815260040161050290614b2b565b6106b3848484846113ce565b600061073f611503565b905090565b61075c6000805160206158bd83398151915233610a6a565b8061076a575061076a610a8f565b6107865760405162461bcd60e51b815260040161050290614af4565b610794868686868686611610565b505050505050565b6000806000806107ac86866116bc565b9299919850965090945092505050565b600061073f611727565b6107ce610a8f565b6107ea5760405162461bcd60e51b815260040161050290614b2b565b6105147fdf8b4c520ffe197c5343c6f5aec59570151ef9a492f2c624fd45ddde6135ec4282610dc9565b61082c6000805160206158bd83398151915233610a6a565b8061083a575061083a610a8f565b6108565760405162461bcd60e51b815260040161050290614af4565b6105148161173a565b61051481611799565b600061087483836117a3565b9392505050565b60006108748383610a6a565b61088f610a8f565b6108ab5760405162461bcd60e51b815260040161050290614b2b565b6108bf8c8c8c8c8c8c8c8c8c8c8c8c6117c8565b505050505050505050505050565b6108d5610a8f565b6108f15760405162461bcd60e51b815260040161050290614b2b565b6105146000805160206158bd83398151915282610dc9565b60008060006109188585611b66565b9250925092509250925092565b61092d610a8f565b6109495760405162461bcd60e51b815260040161050290614b2b565b6105146000805160206158bd83398151915282610d17565b610969610a8f565b6109855760405162461bcd60e51b815260040161050290614b2b565b6106b384848484611d15565b610999610a8f565b6109b55760405162461bcd60e51b815260040161050290614b2b565b61051481611de2565b6109d66000805160206158bd83398151915233610a6a565b806109e457506109e4610a8f565b610a005760405162461bcd60e51b815260040161050290614af4565b610631838383611e2e565b600061060f82611f60565b610a1f82610d9d565b610a2881610dbf565b6106318383610d17565b610a3a610a8f565b610a565760405162461bcd60e51b815260040161050290614b2b565b610a638585858585611f84565b5050505050565b600082815260008051602061589d833981519152602052604081206108749083612110565b600061073f7fdf8b4c520ffe197c5343c6f5aec59570151ef9a492f2c624fd45ddde6135ec4233610a6a565b610ad5610ad06101a08301610180840161440d565b612132565b610aea610ae5602083018361440d565b612196565b6000610af4610d79565b6003016001610b01610d79565b6006016000610b13602087018761440d565b6001600160801b0319168152602081019190915260400160002054610b389190614b78565b81548110610b4857610b48614b8b565b90600052602060002090600502019050610b60610d79565b6002015460a0830135610b71610d79565b60010154610b7f9190614ba1565b1115610bdc5760405162461bcd60e51b815260206004820152602660248201527f4973737565723a20496e73756666696369656e742073686172657320617574686044820152651bdc9a5e995960d21b6064820152608401610502565b80600401548260a001358260030154610bf59190614ba1565b1115610c565760405162461bcd60e51b815260206004820152602a60248201527f53746f636b436c6173733a20496e73756666696369656e742073686172657320604482015269185d5d1a1bdc9a5e995960b21b6064820152608401610502565b610c5e610d79565b6005018054906000610c6f83614bb4565b9190505550610563610c7f610d79565b60050154610c8c84614c1b565b6121e7565b610ca1610ad0602084018461440d565b610cb4610ae5604084016020850161440d565b610cda81610cc5602085018561440d565b610cd5604086016020870161440d565b612210565b610ce2610d79565b6005018054906000610cf383614bb4565b919050555061056382610d0590614deb565b610d0d610d79565b60050154836122fc565b600082815260008051602061589d83398151915260205260409020610d3c90826123f0565b5060405133906001600160a01b0383169084907ff6391f5c32d9c69d2a47ea670b442974b53935d1edc7fd64eb21e047a839171b90600090a45050565b7f0e91fe0d021f7d5ef0a4335f5a3541fa8bc83a3d8815ed2f3958ffe5ef1e9ed590565b600090815260008051602061589d833981519152602052604090206002015490565b6105148133612405565b600082815260008051602061589d83398151915260205260409020610dee9082612467565b5060405133906001600160a01b0383169084907f2f8788117e7eff1d82e926ec794901d17c78024a50270940304540a733656f0d90600090a45050565b60006060600080600080610e3d610d79565b6001600160801b03198816600090815260069190910160205260409020541115610fcf576000610e6b610d79565b6003016001610e78610d79565b6001600160801b03198a1660009081526006919091016020526040902054610ea09190614b78565b81548110610eb057610eb0614b8b565b90600052602060002090600502016040518060a00160405290816000820160009054906101000a900460801b6001600160801b0319166001600160801b0319168152602001600182018054610f0490614ea3565b80601f0160208091040260200160405190810160405280929190818152602001828054610f3090614ea3565b8015610f7d5780601f10610f5257610100808354040283529160200191610f7d565b820191906000526020600020905b815481529060010190602001808311610f6057829003601f168201915b5050505050815260200160028201548152602001600382015481526020016004820154815250509050806000015181602001518260400151836060015184608001519550955095509550955050610653565b505060408051602081019091526000808252935091508290508080610653565b8035158015906110025750602081013515155b801561101c575060006110186040830183614ed7565b9050115b6110685760405162461bcd60e51b815260206004820152601d60248201527f496e76616c69642053656564696e672053686172657320506172616d730000006044820152606401610502565b8035611072610d79565b600201556020810135611083610d79565b6001015560005b6110976040830183614ed7565b90508110156105635760006110af6040840184614ed7565b838181106110bf576110bf614b8b565b6110d5926020606090920201908101915061440d565b90506110e081612196565b600060016110ec610d79565b6001600160801b03198416600090815260069190910160205260409020546111149190614b78565b90506111236040850185614ed7565b8481811061113357611133614b8b565b90506060020160200135611145610d79565b600301828154811061115957611159614b8b565b600091825260209091206004600590920201015561117a6040850185614ed7565b8481811061118a5761118a614b8b565b9050606002016040013561119c610d79565b60030182815481106111b0576111b0614b8b565b906000526020600020906005020160030181905550505080806111d290614bb4565b91505061108a565b6111e384612132565b6111ec83612196565b6111f4610d79565b600501805490600061120583614bb4565b91905055506000611214610d79565b6001600160801b031980871660009081526007929092016020908152604080842087841685528252928390208351608080820186528254901b909316835260018101549183019190915260028101549282019290925260039091015464ffffffffff16606082015290506112878161247c565b610a63611292610d79565b6005015484846124a1565b6112ad610ad0602084018461440d565b6112c0610ae5604084016020850161440d565b6112c8610d79565b60050180549060006112d983614bb4565b919050555060006040518060e001604052806112f3610d79565b600501548152602001838152602001846000016020810190611315919061440d565b6001600160801b0319168152602001846020016020810190611337919061440d565b6001600160801b0319168152602001611356606086016040870161440d565b6001600160801b03191681526020016113726060860186614f1f565b61137b91614f68565b815260200161138d6080860186614f75565b8080601f01602080910402602001604051908101604052809392919081815260200183838082843760009201919091525050509152509050610631816124c6565b6113d78461266f565b6113df610d79565b6040805160a0810182526001600160801b031987811682526020808301888152938301879052600060608401819052608080850188905260039690960180546001808201835591835292909120845160059093020180549093169190951c178155915190928201906114519082615001565b50604082015181600201556060820151816003015560808201518160040155505061147a610d79565b60030154611486610d79565b6001600160801b031986166000908152600691909101602052604090819020919091555182906114b79085906150c0565b604051908190038120838252906001600160801b03198716907fc7496d70298fcc793e1d058617af680232585e302f0185b14bba498b247a9c1d9060200160405180910390a450505050565b6000808061152f7fe8b8fb71d93f41355a02f1dbf23faef64e2c875ab61bf9525ac127ba9398eae85490565b905060005b818110156116085760005b611547610d79565b600301548110156115f55761155a610d79565b6008016000611568846126c2565b6001600160801b0319166001600160801b03191681526020019081526020016000206000611594610d79565b60030183815481106115a8576115a8614b8b565b600091825260208083206005929092029091015460801b6001600160801b03191683528201929092526040019020546115e19085614ba1565b9350806115ed81614bb4565b91505061153f565b508061160081614bb4565b915050611534565b509092915050565b61161986612132565b61162285612132565b61162b84612196565b611633610d79565b600501805490600061164483614bb4565b919050555060006040518060e00160405280886001600160801b0319168152602001876001600160801b0319168152602001866001600160801b031916815260200185151581526020018481526020018381526020016116a2610d79565b60050154905290506116b381612711565b50505050505050565b60008060008060006116cc610d79565b6001600160801b0319978816600090815260079190910160209081526040808320989099168252969096525050509290912080546001820154600283015460039093015460809290921b9590945091925064ffffffffff1690565b6000611731610d79565b60030154919050565b61174a610ad0602083018361440d565b61175d610ae5604083016020840161440d565b611765610d79565b600501805490600061177683614bb4565b91905055506105148161178890614deb565b611790610d79565b600501546129fa565b6105148133610d17565b600082815260008051602061589d833981519152602052604081206108749083612aed565b8a891480156117d657508887145b80156117e157508685145b80156117ec57508483145b80156117f757508281145b6118525760405162461bcd60e51b815260206004820152602660248201527f496e70757420617272617973206d7573742068617665207468652073616d65206044820152650d8cadccee8d60d31b6064820152608401610502565b60005b8b811015611b57576118878d8d8381811061187257611872614b8b565b9050602002016020810190610ad0919061440d565b6118b189898381811061189c5761189c614b8b565b9050602002016020810190610ae5919061440d565b60405180608001604052808a8a848181106118ce576118ce614b8b565b90506020020160208101906118e3919061440d565b6001600160801b031916815260200188888481811061190457611904614b8b565b90506020020135815260200186868481811061192257611922614b8b565b90506020020135815260200184848481811061194057611940614b8b565b905060200201602081019061195591906150dc565b64ffffffffff169052611966610d79565b60070160008f8f8581811061197d5761197d614b8b565b9050602002016020810190611992919061440d565b6001600160801b0319166001600160801b031916815260200190815260200160002060008d8d858181106119c8576119c8614b8b565b90506020020160208101906119dd919061440d565b6001600160801b0319908116825260208083019390935260409182016000208451815490921660809290921c91909117815591830151600183015582015160028201556060909101516003909101805464ffffffffff191664ffffffffff909216919091179055611a4c610d79565b60080160008e8e84818110611a6357611a63614b8b565b9050602002016020810190611a78919061440d565b6001600160801b0319166001600160801b031916815260200190815260200160002060008a8a84818110611aae57611aae614b8b565b9050602002016020810190611ac3919061440d565b6001600160801b031916815260208101919091526040016000208b8b83818110611aef57611aef614b8b565b9050602002016020810190611b04919061440d565b81546001808201845560009384526020909320600282040180546001600160801b03949092166010026101000a9384021990911660809290921c9290920217905580611b4f81614bb4565b915050611855565b50505050505050505050505050565b600080600080611b74610d79565b6001600160801b031980881660009081526008929092016020908152604080842092891684529181529181902080548251818502810185019093528083529192909190830182828015611c1357602002820191906000526020600020906000905b82829054906101000a900460801b6001600160801b03191681526020019060100190602082600f01049283019260010382029150808411611bd55790505b505050505090506000806000805b8451811015611d05576000611c34610d79565b6001600160801b03198c166000908152600791909101602052604081208751909190889085908110611c6857611c68614b8b565b60200260200101516001600160801b0319166001600160801b0319168152602001908152602001600020905080600201548160010154611ca89190615103565b611cb29086614ba1565b9450806001015484611cc49190614ba1565b600382015490945064ffffffffff808516911611611ce25782611cef565b600381015464ffffffffff165b9250508080611cfd90614bb4565b915050611c21565b5091955093509150509250925092565b611d1d610d79565b60010154841015611dac5760405162461bcd60e51b815260206004820152604d60248201527f496e73756666696369656e74497373756572536861726573417574686f72697a60448201527f65643a207368617265735f6973737565642065786365656473206e657753686160648201526c1c995cd05d5d1a1bdc9a5e9959609a1b608482015260a401610502565b611db4610d79565b6005018054906000611dc583614bb4565b91905055506106b3611dd5610d79565b6005015485858585612af9565b611dea610d79565b6040805160208082019092526001600160801b031993841681526004929092018054600181018255600091825291902091519101805490921660809190911c179055565b611e3e610ad0602085018561440d565b611e51610ae5604085016020860161440d565b611e59610d79565b6005018054906000611e6a83614bb4565b919050555060006040518060e00160405280611e84610d79565b600501548152602001848152602001856000016020810190611ea6919061440d565b6001600160801b0319168152602001856020016020810190611ec8919061440d565b6001600160801b0319168152602001611ee7606087016040880161440d565b6001600160801b0319168152602001611f036060870187614f1f565b611f0c91614f68565b8152602001611f1e6080870187614f75565b8080601f016020809104026020016040519081016040528093929190818152602001838380828437600092019190915250505091525090506106b38183612b3b565b600081815260008051602061589d8339815191526020526040812061060f90612ccc565b6000611f8e610d79565b6003016001611f9b610d79565b6001600160801b0319891660009081526006919091016020526040902054611fc39190614b78565b81548110611fd357611fd3614b8b565b90600052602060002090600502019050611fec86612196565b611ff4610d79565b600201548511156120a25760405162461bcd60e51b815260206004820152606660248201527f496e73756666696369656e7453746f636b436c6173735368617265734175746860448201527f6f72697a65643a2073746f636b20636c61737320617574686f72697a6564207360648201527f68617265732065786365656473206973737565722073686172657320617574686084820152651bdc9a5e995960d21b60a482015260c401610502565b6120aa610d79565b60050180549060006120bb83614bb4565b919050555060006120db6120cd610d79565b60050154878787878c612cd6565b90508582600401819055506116b36002826040516020016120fc91906151f8565b604051602081830303815290604052612d83565b6001600160a01b03811660009081526001830160205260408120541515610874565b6001600160801b0319811660009081527fe8b8fb71d93f41355a02f1dbf23faef64e2c875ab61bf9525ac127ba9398eaea602052604081205490036105145760405163b4586dfb60e01b81526001600160801b031982166004820152602401610502565b61219e610d79565b6001600160801b0319821660009081526006919091016020526040812054900361051457604051630b2b152360e21b81526001600160801b031982166004820152602401610502565b6121f981608001518260600151612e88565b60006122058284612ebb565b905061063181612f42565b8251600003612232576040516309ef2e0760e01b815260040160405180910390fd5b60008360008151811061224757612247614b8b565b60200260200101519050600061225b610d79565b6001600160801b031980861660009081526007929092016020908152604080842086841685528252928390208351608080820186528254901b9093168352600181015491830182905260028101549383019390935260039092015464ffffffffff166060820152915015806122de575080516001600160801b0319848116911614155b15610a6357604051632b2eaacf60e21b815260040160405180910390fd5b6000612306610d79565b84516001600160801b0319908116600090815260079290920160209081526040808420818901805185168652908352938190208151608080820184528254901b90941684526001810154928401929092526002820154908301526003015464ffffffffff16606082015285519151909250612382918391613142565b600061239d848660600151876040015186896080015161317b565b90506123b56006826040516020016120fc9190615250565b6123c785602001518360200151613230565b6123d9856000015186604001516132cc565b610a63856000015186602001518760400151613324565b6000610874836001600160a01b03841661337a565b61240f8282610a6a565b61056357612425816001600160a01b031661343f565b612430836020613451565b604051602001612441929190615302565b60408051601f198184030181529082905262461bcd60e51b825261050291600401615377565b6000610874836001600160a01b03841661358f565b806020015160000361051457604051632b2eaacf60e21b815260040160405180910390fd5b60006124ae8483856135d2565b90506106b36003826040516020016120fc919061538a565b60006124d0610d79565b604080840180516001600160801b03199081166000908152600794909401602090815283852060808089018051851688529183529585902085518088018752815490971b90931686526001830154918601919091526002820154938501939093526003015464ffffffffff16606084015251905191925061255391839190613142565b6125658160200151836020015161365e565b60008260200151826020015161257b9190614b78565b9050600081156125f8576040805160e081018252858201516001600160801b03199081168083526000602084018190526060808a015190931684860152600192840192909252608083018690529286015160a0830152865160c083015290916125e5908390613689565b90506125f081612f42565b604001519150505b600061261c856000015186602001518760a0015188608001518960c001518761384a565b90506126346004826040516020016120fc91906153e6565b61264685606001518560200151613230565b612658856040015186608001516132cc565b610a63856040015186606001518760800151613324565b6000612679610d79565b6001600160801b0319831660009081526006919091016020526040902054111561051457604051631339dd8760e21b81526001600160801b031982166004820152602401610502565b60007fe8b8fb71d93f41355a02f1dbf23faef64e2c875ab61bf9525ac127ba9398eae88054839081106126f7576126f7614b8b565b600091825260209091206003909102015460801b92915050565b61271e8160600151613900565b61273081608001518260a00151612e88565b600061273a610d79565b82516001600160801b0319908116600090815260089290920160209081526040808420818701519093168452919052902054116127b95760405162461bcd60e51b815260206004820152601c60248201527f4e6f206163746976652073656375726974792069647320666f756e64000000006044820152606401610502565b60006127c3610d79565b82516001600160801b0319908116600090815260089290920160209081526040808420818701519093168452918152918190208054825181850281018501909352808352919290919083018282801561286857602002820191906000526020600020906000905b82829054906101000a900460801b6001600160801b03191681526020019060100190602082600f0104928301926001038202915080841161282a5790505b5050505050905060008060005b835181101561292c576000612888610d79565b86516001600160801b03191660009081526007919091016020526040812086519091908790859081106128bd576128bd614b8b565b60200260200101516001600160801b0319166001600160801b031916815260200190815260200160002090508060010154846128f99190614ba1565b9350612906600184614ba1565b925085608001518410612919575061292c565b508061292481614bb4565b915050612875565b5061293b82856080015161365e565b608084015160005b8281101561079457600085828151811061295f5761295f614b8b565b602002602001015190506000612973610d79565b88516001600160801b0319908116600090815260079290920160209081526040808420928616845291905290206001810154909150849081106129b7575060018101545b608089018190526129c8898461391e565b6129d28186614b78565b9450846000036129e457505050610794565b50505080806129f290614bb4565b915050612943565b6000612a04610d79565b83516001600160801b0319908116600090815260079290920160209081526040808420818801805185168652908352938190208151608080820184528254901b90941684526001810154928401929092526002820154908301526003015464ffffffffff16606082015284519151909250612a80918391613142565b6000612a9a83856060015186604001518760800151613ad4565b9050612ab26008826040516020016120fc9190615488565b612ac484602001518360200151613230565b612ad6846000015185604001516132cc565b6106b3846000015185602001518660400151613324565b60006108748383613b6c565b6000612b148686868686612b0b610d79565b5460801b613bb8565b905084612b1f610d79565b60020155604051610794906001906120fc9084906020016151f8565b6000612b45610d79565b604080850180516001600160801b0319908116600090815260079490940160209081528385206080808a018051851688529183529585902085518088018752815490971b90931686526001830154918601919091526002820154938501939093526003015464ffffffffff166060840152519051919250612bc891839190613142565b612bda8160200151846020015161365e565b600083602001518260200151612bf09190614b78565b905060008115612c6d576040805160e081018252868201516001600160801b03199081168083526000602084018190526060808b015190931684860152600192840192909252608083018690529286015160a0830152875160c08301529091612c5a908390613689565b9050612c6581612f42565b604001519150505b6000612c798686613c65565b9050612c916007826040516020016120fc9190615502565b612ca386606001518560200151613230565b612cb5866040015187608001516132cc565b610794866040015187606001518860800151613324565b600061060f825490565b612d196040518060c0016040528060006001600160801b031916815260200160608152602001600081526020016060815260200160608152602001606081525090565b6000612d258389613d81565b90506040518060c00160405280826001600160801b03191681526020016040518060600160405280602b8152602001615903602b91398152602001888152602001878152602001868152602001858152509150509695505050505050565b7f71f1fe694a9df70ef705bc11814f6781de2e3fa2c2b924be3586437aea382f5c6040518060400160405280846009811115612dc157612dc16155b6565b8152602090810184905282546001818101855560009485529190932082516002909402018054929390929091839160ff191690836009811115612e0657612e066155b6565b021790555060208201516001820190612e1f9082615001565b5050507f9f88fb156974def70024c0bee5f2fefd94c4f8141b6468bd9e49eb0425639845612e6a7f71f1fe694a9df70ef705bc11814f6781de2e3fa2c2b924be3586437aea382f5c90565b54604051612e7c9190859085906155cc565b60405180910390a15050565b811580612e93575080155b156105635760405163041e800160e21b81526004810183905260248101829052604401610502565b612ec36140ec565b6000612ed484610160015184613d81565b90506000612ee6856000015185613d81565b604080516080810182526001600160801b0319948516815281518083018352601181527054585f53544f434b5f49535355414e434560781b60208281019190915282015293909116908301525060608101849052905092915050565b612f4a610d79565b6060828101805161016001516001600160801b03199081166000908152600894909401602090815260408086208451518416875282528086208188015181546001808201845592895297849020600289040180546001600160801b03939099166010026101000a92830219909816608091821c92909202919091179096558051808701825284515190931683528351909501519082015290518201519281019290925281014264ffffffffff169052613001610d79565b60608381015161016001516001600160801b0319908116600090815260079390930160209081526040808520818801518416865282528085208651815490941660809490941c93909317835590850151600183015584015160028201559201516003909201805464ffffffffff191664ffffffffff90931692909217909155613088610d79565b6003016001613095610d79565b6060850151516001600160801b031916600090815260069190910160205260409020546130c29190614b78565b815481106130d2576130d2614b8b565b906000526020600020906005020190508160600151608001516130f3610d79565b600101546131019190614ba1565b613109610d79565b6001015560608201516080015160038201546131259190614ba1565b6003820155604051610563906005906120fc908590602001615609565b826020015160000361063157604051634213860d60e11b81526001600160801b0319808416600483015282166024820152604401610502565b6040805160e08101825260008082526060602083018190529282018390528282018190526080820183905260a082015260c081019190915260006131bf8588613d81565b6040805160e0810182526001600160801b0319928316815281518083018352601381527254585f53544f434b5f524549535355414e434560681b60208083019190915282015290810197909752949094166060860152506080840191909152600060a084015260c083015250919050565b600061323a610d79565b6003016001613247610d79565b6001600160801b031986166000908152600691909101602052604090205461326f9190614b78565b8154811061327f5761327f614b8b565b9060005260206000209060050201905081613298610d79565b600101546132a69190614b78565b6132ae610d79565b6001015560038101546132c2908390614b78565b6003909101555050565b6132d4610d79565b6001600160801b0319928316600090815260079190910160209081526040808320938516835292905290812080549092168255600182018190556002820155600301805464ffffffffff19169055565b600061332e610d79565b6001600160801b03198086166000908152600892909201602090815260408084209287168452919052812091506133658284613dce565b90506000198114610a6357610a638282613e4e565b60008181526001830160205260408120548015613438578354600090859060001981019081106133ac576133ac614b8b565b90600052602060002001549050808560000160018403815481106133d2576133d2614b8b565b6000918252602080832090910192909255918252600186019052604090208190558354849080613404576134046157cc565b6001900381819060005260206000200160009055905583600101600084815260200190815260200160002060009055600191505b5092915050565b606061060f6001600160a01b03831660145b60011b60020160606000826001600160401b0381111561347357613473614209565b6040519080825280601f01601f19166020018201604052801561349d576020820181803683370190505b509050600360fc1b816000815181106134b8576134b8614b8b565b60200101906001600160f81b031916908160001a905350600f60fb1b816001815181106134e7576134e7614b8b565b60200101906001600160f81b031916908160001a9053505b600283111561357057600019909201916f181899199a1a9b1b9c1cb0b131b232b360811b600f85166010811061353757613537614b8b565b1a60f81b81848151811061354d5761354d614b8b565b60200101906001600160f81b031916908160001a905350600484901c93506134ff565b8315610874576040516355a04ff160e11b815260040160405180910390fd5b600081815260018301602052604081205461060f575081546001808201845560008481526020808220909301849055845493815293810190915260409092205590565b604080516080810182526000808252606060208301819052928201528181019190915260006136018386613d81565b604080516080810182526001600160801b0319928316815281518083018352601381527254585f53544f434b5f414343455054414e434560681b602080830191909152820152949091169084015250506060810191909152919050565b808210156105635760405163658ec5dd60e11b81526004810183905260248101829052604401610502565b6136916140ec565b604080518082019091526000808252602082015260006136b5848660c00151613d81565b905060006136cb86604001518760c00151613d81565b6040805161020081018252888201516001600160801b03191681526000602080830182905282840188905260a0808c015160608501526080808d015190850152830182905260c083018290528351828152808201855260e08401528351808201855282815261010084015283518281529081019093529293509061012082019083613766565b60608152602001906001900390816137515790505b50815260408051602080820183526000808352818501929092526001600160801b03198b16838501528251808201845282815260608501528251808201845282815260808501528251808201845282815260a0850152825182815290810190925260c0909201916137e7565b60608152602001906001900390816137d25790505b509052604080516080810182526001600160801b0319958616815281518083018352601181527054585f53544f434b5f49535355414e434560781b6020828101919091528201529390941693830193909352506060810191909152949350505050565b6040805160e08101825260008082526060602083018190529282018190528282018390526080820181905260a082019290925260c081018290529061388f8589613d81565b6040805160e0810182526001600160801b031992831681528151808301835260158152742a2c2fa9aa27a1a5afa1a0a721a2a62620aa24a7a760591b6020808301919091528201529081019890985260608801969096525050918316608085015260a08401521660c0820152919050565b806105145760405163d27b8e0f60e01b815260040160405180910390fd5b6000613928610d79565b83516001600160801b031990811660009081526007929092016020908152604080842086841685528252928390208351608080820186528254811b909416815260018201549281018390526002820154948101949094526003015464ffffffffff1660608401529085015191925061399f9161365e565b60006139af848560200151613689565b90506139ba81612f42565b6000846080015183602001516139d09190614b78565b6040805160e08101825287516001600160801b031990811682526020808a015182169083015288830151168183015260608089015115159082015260808089015190820190815260a0808a015190830190815260c0808b01519084015290849052918601519091529091506000908215613a66576000613a54828360000151613689565b9050613a5f81612f42565b6040015191505b6000613a818860c00151896080015189886040015187613f88565b9050613a996009826040516020016120fc91906157e2565b613aab88604001518760200151613230565b8751613ab790886132cc565b613aca8860000151896040015189613324565b5050505050505050565b6040805160a08101825260008082526060602083018190529282018390528282015260808101919091526000613b0a8487613d81565b6040805160a0810182526001600160801b031992831681528151808301835260138152722a2c2fa9aa27a1a5afa922aa2920a1aa24a7a760691b6020808301919091528201529081019690965293909316606085015250608083015250919050565b81546000908210613b905760405163e637bf3b60e01b815260040160405180910390fd5b826000018281548110613ba557613ba5614b8b565b9060005260206000200154905092915050565b613bfb6040518060c0016040528060006001600160801b031916815260200160608152602001600081526020016060815260200160608152602001606081525090565b6000613c078389613d81565b90506040518060c00160405280826001600160801b03191681526020016040518060600160405280602681526020016158dd602691398152602001888152602001878152602001868152602001858152509150509695505050505050565b613ccb60405180610100016040528060006001600160801b0319168152602001606081526020016060815260200160006001600160801b03191681526020016060815260200160006001600160801b031916815260200160008152602001600081525090565b6000613cdf84608001518560000151613d81565b9050604051806101000160405280826001600160801b03191681526020016040518060400160405280601381526020017254585f53544f434b5f5245505552434841534560681b81525081526020018560a00151815260200185608001516001600160801b03191681526020018560c00151815260200185604001516001600160801b0319168152602001856020015181526020018481525091505092915050565b604080516001600160801b0319939093166020808501919091524260308501524460508501526070808501939093528151808503909301835260909093019052805191012090565b919050565b6000805b8354811015613e4357826001600160801b031916848281548110613df857613df8614b8b565b90600052602060002090600291828204019190066010029054906101000a900460801b6001600160801b03191603613e3157905061060f565b80613e3b81614bb4565b915050613dd2565b506000199392505050565b81548110613e945760405162461bcd60e51b8152602060048201526013602482015272496e646578206f7574206f6620626f756e647360681b6044820152606401610502565b805b8254613ea490600190614b78565b811015613f425782613eb7826001614ba1565b81548110613ec757613ec7614b8b565b90600052602060002090600291828204019190066010029054906101000a900460801b838281548110613efc57613efc614b8b565b90600052602060002090600291828204019190066010026101000a8154816001600160801b03021916908360801c02179055508080613f3a90614bb4565b915050613e96565b5081805480613f5357613f536157cc565b60008281526020902060026000199092019182040180546001600160801b03601060018516026101000a021916905590555050565b604080516101008101825260008082526060602083018190528284018290528083018190526080830182905260a0830181905260c0830182905260e08301528251600180825281850190945291929091908160200160208202803683370190505090508381600081518110613fff57613fff614b8b565b6001600160801b03199092166020928302919091019091015260006140248689613d81565b60408051610100810182526001600160801b0319831681528151808301835260118152702a2c2fa9aa27a1a5afaa2920a729a322a960791b6020828101919091528201529081018990529091506060810160006040519080825280602002602001820160405280156140aa57816020015b60608152602001906001900390816140955790505b5081526001600160801b031980891660208084019190915260408051918201815260008252830152861660608201526080019290925250905095945050505050565b604080516080810182526000808252606060208301819052928201529081016141b1604080516102008101825260008082526020808301829052835180850185528281529081019190915290918201908152602001600081526020016000815260200160006001600160801b0319168152602001600081526020016060815260200160608152602001606081526020016060815260200160006001600160801b0319168152602001606081526020016060815260200160608152602001606081525090565b905290565b6000602082840312156141c857600080fd5b81356001600160401b038111156141de57600080fd5b8201610220818503121561087457600080fd5b600060a0828403121561420357600080fd5b50919050565b634e487b7160e01b600052604160045260246000fd5b60405161020081016001600160401b038111828210171561424257614242614209565b60405290565b604051601f8201601f191681016001600160401b038111828210171561427057614270614209565b604052919050565b60006001600160401b0382111561429157614291614209565b5060051b60200190565b80356001600160801b031981168114613dc957600080fd5b600082601f8301126142c457600080fd5b813560206142d96142d483614278565b614248565b82815260059290921b840181019181810190868411156142f857600080fd5b8286015b8481101561431a5761430d8161429b565b83529183019183016142fc565b509695505050505050565b6000806040838503121561433857600080fd5b82356001600160401b038082111561434f57600080fd5b61435b868387016141f1565b9350602085013591508082111561437157600080fd5b5061437e858286016142b3565b9150509250929050565b80356001600160a01b0381168114613dc957600080fd5b6000602082840312156143b157600080fd5b61087482614388565b6001600160801b0319169052565b6000602082840312156143da57600080fd5b5035919050565b600080604083850312156143f457600080fd5b8235915061440460208401614388565b90509250929050565b60006020828403121561441f57600080fd5b6108748261429b565b60005b8381101561444357818101518382015260200161442b565b50506000910152565b60008151808452614464816020860160208601614428565b601f01601f19169290920160200192915050565b6001600160801b03198616815260a06020820152600061449b60a083018761444c565b604083019590955250606081019290925260809091015292915050565b6000602082840312156144ca57600080fd5b81356001600160401b038111156144e057600080fd5b82016060818503121561087457600080fd5b600082601f83011261450357600080fd5b81356001600160401b0381111561451c5761451c614209565b61452f601f8201601f1916602001614248565b81815284602083860101111561454457600080fd5b816020850160208301376000918101602001919091529392505050565b600061456f6142d484614278565b8381529050602080820190600585901b84018681111561458e57600080fd5b845b818110156145c95780356001600160401b038111156145af5760008081fd5b6145bb898289016144f2565b855250928201928201614590565b505050509392505050565b600082601f8301126145e557600080fd5b61087483833560208501614561565b6000806000806080858703121561460a57600080fd5b6146138561429b565b93506146216020860161429b565b925061462f6040860161429b565b915060608501356001600160401b0381111561464a57600080fd5b614656878288016145d4565b91505092959194509250565b6000806040838503121561467557600080fd5b82356001600160401b0381111561468b57600080fd5b614697858286016141f1565b95602094909401359450505050565b600080600080608085870312156146bc57600080fd5b6146c58561429b565b935060208501356001600160401b038111156146e057600080fd5b6146ec878288016144f2565b949794965050505060408301359260600135919050565b60008060008060008060c0878903121561471c57600080fd5b6147258761429b565b95506147336020880161429b565b94506147416040880161429b565b93506060870135801515811461475657600080fd5b9598949750929560808101359460a0909101359350915050565b6000806040838503121561478357600080fd5b61478c8361429b565b91506144046020840161429b565b6000602082840312156147ac57600080fd5b81356001600160401b038111156147c257600080fd5b6147ce848285016141f1565b949350505050565b600080604083850312156147e957600080fd5b50508035926020909101359150565b60008083601f84011261480a57600080fd5b5081356001600160401b0381111561482157600080fd5b6020830191508360208260051b850101111561483c57600080fd5b9250929050565b60008060008060008060008060008060008060c08d8f03121561486557600080fd5b6001600160401b038d35111561487a57600080fd5b6148878e8e358f016147f8565b909c509a506001600160401b0360208e013511156148a457600080fd5b6148b48e60208f01358f016147f8565b909a5098506001600160401b0360408e013511156148d157600080fd5b6148e18e60408f01358f016147f8565b90985096506001600160401b0360608e013511156148fe57600080fd5b61490e8e60608f01358f016147f8565b90965094506001600160401b0360808e0135111561492b57600080fd5b61493b8e60808f01358f016147f8565b90945092506001600160401b0360a08e0135111561495857600080fd5b6149688e60a08f01358f016147f8565b81935080925050509295989b509295989b509295989b565b6000806000806080858703121561499657600080fd5b8435935060208501356001600160401b03808211156149b457600080fd5b6149c0888389016145d4565b945060408701359150808211156149d657600080fd5b6149e2888389016144f2565b935060608701359150808211156149f857600080fd5b50614656878288016144f2565b600080600060608486031215614a1a57600080fd5b83356001600160401b03811115614a3057600080fd5b614a3c868287016141f1565b9660208601359650604090950135949350505050565b600080600080600060a08688031215614a6a57600080fd5b614a738661429b565b94506020860135935060408601356001600160401b0380821115614a9657600080fd5b614aa289838a016145d4565b94506060880135915080821115614ab857600080fd5b614ac489838a016144f2565b93506080880135915080821115614ada57600080fd5b50614ae7888289016144f2565b9150509295509295909350565b6020808252601b908201527f446f6573206e6f742068617665206f70657261746f7220726f6c650000000000604082015260600190565b60208082526018908201527f446f6573206e6f7420686176652061646d696e20726f6c650000000000000000604082015260600190565b634e487b7160e01b600052601160045260246000fd5b8181038181111561060f5761060f614b62565b634e487b7160e01b600052603260045260246000fd5b8082018082111561060f5761060f614b62565b600060018201614bc657614bc6614b62565b5060010190565b600060408284031215614bdf57600080fd5b604051604081018181106001600160401b0382111715614c0157614c01614209565b604052823581526020928301359281019290925250919050565b60006102208236031215614c2e57600080fd5b614c3661421f565b614c3f8361429b565b8152614c4d6020840161429b565b6020820152614c5f3660408501614bcd565b60408201526080830135606082015260a08301356080820152614c8460c0840161429b565b60a082015260e083013560c0820152610100808401356001600160401b0380821115614caf57600080fd5b614cbb368388016142b3565b60e085015261012091508186013581811115614cd657600080fd5b614ce2368289016144f2565b848601525061014092508286013581811115614cfd57600080fd5b614d09368289016145d4565b838601525061016091508186013581811115614d2457600080fd5b614d30368289016144f2565b84860152506101809250614d4583870161429b565b828501526101a091508186013581811115614d5f57600080fd5b614d6b368289016144f2565b84860152506101c092508286013581811115614d8657600080fd5b614d92368289016144f2565b83860152506101e091508186013581811115614dad57600080fd5b614db9368289016144f2565b8486015250610200860135925080831115614dd357600080fd5b50614de0368387016145d4565b908301525092915050565b600060a08236031215614dfd57600080fd5b60405160a081016001600160401b038282108183111715614e2057614e20614209565b81604052614e2d8561429b565b8352614e3b6020860161429b565b6020840152614e4c6040860161429b565b60408401526060850135915080821115614e6557600080fd5b614e71368387016145d4565b60608401526080850135915080821115614e8a57600080fd5b50614e97368286016144f2565b60808301525092915050565b600181811c90821680614eb757607f821691505b60208210810361420357634e487b7160e01b600052602260045260246000fd5b6000808335601e19843603018112614eee57600080fd5b8301803591506001600160401b03821115614f0857600080fd5b602001915060608102360382131561483c57600080fd5b6000808335601e19843603018112614f3657600080fd5b8301803591506001600160401b03821115614f5057600080fd5b6020019150600581901b360382131561483c57600080fd5b6000610874368484614561565b6000808335601e19843603018112614f8c57600080fd5b8301803591506001600160401b03821115614fa657600080fd5b60200191503681900382131561483c57600080fd5b601f82111561063157600081815260208120601f850160051c81016020861015614fe25750805b601f850160051c820191505b8181101561079457828155600101614fee565b81516001600160401b0381111561501a5761501a614209565b61502e816150288454614ea3565b84614fbb565b602080601f831160018114615063576000841561504b5750858301515b600019600386901b1c1916600185901b178555610794565b600085815260208120601f198616915b8281101561509257888601518255948401946001909101908401615073565b50858210156150b05787850151600019600388901b60f8161c191681555b5050505050600190811b01905550565b600082516150d2818460208701614428565b9190910192915050565b6000602082840312156150ee57600080fd5b813564ffffffffff8116811461087457600080fd5b808202811582820484141761060f5761060f614b62565b600081518084526020808501808196508360051b8101915082860160005b8581101561516257828403895261515084835161444c565b98850198935090840190600101615138565b5091979650505050505050565b6001600160801b031981511682526000602082015160c0602085015261519860c085018261444c565b905060408301516040850152606083015184820360608601526151bb828261511a565b915050608083015184820360808601526151d5828261444c565b91505060a083015184820360a08601526151ef828261444c565b95945050505050565b602081526000610874602083018461516f565b600081518084526020808501945080840160005b838110156152455781516001600160801b0319168752958201959082019060010161521f565b509495945050505050565b602081526001600160801b031982511660208201526000602083015160e0604084015261528161010084018261444c565b90506040840151601f198085840301606086015261529f838361511a565b9250606086015191506152b560808601836143ba565b60808601519150808584030160a08601526152d0838361520b565b925060a086015191506152e660c08601836143ba565b60c08601519150808584030160e0860152506151ef828261444c565b7f416363657373436f6e74726f6c3a206163636f756e742000000000000000000081526000835161533a816017850160208801614428565b7001034b99036b4b9b9b4b733903937b6329607d1b601791840191820152835161536b816028840160208801614428565b01602801949350505050565b602081526000610874602083018461444c565b6020815260006001600160801b03198084511660208401526020840151608060408501526153bb60a085018261444c565b905081604086015116606085015260608501519150601f198482030160808501526151ef818361511a565b6020815260006001600160801b0319808451166020840152602084015160e0604085015261541861010085018261444c565b9050604085015160608501526060850151601f1980868403016080870152615440838361511a565b92508360808801511660a087015260a08701519350808684030160c0870152505061546b818361444c565b91505060c084015161548060e08501826143ba565b509392505050565b6020815260006001600160801b0319808451166020840152602084015160a060408501526154b960c085018261444c565b90506040850151601f19808684030160608701526154d7838361511a565b925083606088015116608087015260808701519350808684030160a087015250506151ef818361444c565b602081526155146020820183516143ba565b6000602083015161010080604085015261553261012085018361444c565b91506040850151601f1980868503016060870152615550848361511a565b93506060870151915061556660808701836143ba565b60808701519150808685030160a087015250615582838261444c565b92505060a085015161559760c08601826143ba565b5060c085015160e085015260e085015181850152508091505092915050565b634e487b7160e01b600052602160045260246000fd5b8381526000600a84106155ef57634e487b7160e01b600052602160045260246000fd5b836020830152606060408301526151ef606083018461444c565b6020815260006001600160801b031980845116602084015260208401516080604085015261563a60a085018261444c565b905081604086015116606085015260608501519150601f198482030160808501526102206156698284516143ba565b602083015161567b60208401826143ba565b506040830151615698604084018280518252602090810151910152565b5060608301516080830152608083015160a083015260a08301516156bf60c08401826143ba565b5060c083015160e083015260e083015161010082818501526156e38385018361520b565b92508085015191505061012083830381850152615700838361444c565b9250808501519150506101408383038185015261571d838361511a565b9250808501519150506101608383038185015261573a838361444c565b925080850151915050610180615752818501836143ba565b808501519150506101a08383038185015261576d838361444c565b9250808501519150506101c08383038185015261578a838361444c565b9250808501519150506101e0838303818501526157a7838361444c565b9401518385036102008501529391506157c29050818461511a565b9695505050505050565b634e487b7160e01b600052603160045260246000fd5b602081526157f46020820183516143ba565b6000602083015161010080604085015261581261012085018361444c565b9150604085015160608501526060850151601f198086850301608087015261583a848361511a565b93506080870151915061585060a08701836143ba565b60a08701519150808685030160c087015261586b848361444c565b935060c0870151915061588160e08701836143ba565b60e08701519150808685030183870152506157c2838261520b56fed3889cc5458b268d0544e5534672df1296288ca3f93cbd39bd6f497a5c622811523a704056dcd17bcf83bed8b68c59416dac1119be77755efe3bde0a64e46e0c54585f4953535545525f415554484f52495a45445f5348415245535f41444a5553544d454e5454585f53544f434b5f434c4153535f415554484f52495a45445f5348415245535f41444a5553544d454e54","linkReferences":{}},"methodIdentifiers":{"acceptStock(bytes16,bytes16,bytes16,string[])":"3e4106f3","addAdmin(address)":"70480275","addOperator(address)":"9870d7fe","adjustIssuerAuthorizedShares(uint256,string[],string,string)":"b6238cd1","adjustStockClassAuthorizedShares(bytes16,uint256,string[],string,string)":"efb87519","cancelStock((bytes16,bytes16,bytes16,string[],string),uint256)":"438fd5d8","createStockClass(bytes16,string,uint256,uint256)":"4afd58fa","createStockLegendTemplate(bytes16)":"c1ad1d20","getActivePosition(bytes16,bytes16)":"63aefa5a","getAveragePosition(bytes16,bytes16)":"a1fc8196","getRoleAdmin(bytes32)":"248a9ca3","getRoleMember(bytes32,uint256)":"9010d07c","getRoleMemberCount(bytes32)":"ca15c873","getStockClassById(bytes16)":"371dc885","getTotalActiveSecuritiesCount()":"4d21af64","getTotalNumberOfStockClasses()":"6924e428","grantRole(bytes32,address)":"2f2ff15d","hasRole(bytes32,address)":"91d14854","issueStock((bytes16,bytes16,(uint256,uint256),uint256,uint256,bytes16,uint256,bytes16[],string,string[],string,bytes16,string,string,string,string[]))":"08748030","issuer()":"1d143848","reissueStock((bytes16,bytes16,bytes16,string[],string),bytes16[])":"0c22d6bb","removeAdmin(address)":"1785f53c","removeOperator(address)":"ac8a584a","renounceRole(bytes32)":"8bb9c5bf","repurchaseStock((bytes16,bytes16,bytes16,string[],string),uint256,uint256)":"c93fed66","retractStockIssuance((bytes16,bytes16,bytes16,string[],string))":"7799960d","revokeRole(bytes32,address)":"d547741f","seedMultipleActivePositionsAndSecurityIds(bytes16[],bytes16[],bytes16[],uint256[],uint256[],uint40[])":"924a750e","seedSharesAuthorizedAndIssued(((uint256,uint256),(bytes16,uint256,uint256)[]))":"3cec69df","transferStock(bytes16,bytes16,bytes16,bool,uint256,uint256)":"61dc98b9"},"id":59}