{"abi":[{"type":"function","name":"getConvertiblePosition","inputs":[{"name":"securityId","type":"bytes16","internalType":"bytes16"}],"outputs":[{"name":"","type":"tuple","internalType":"struct ConvertibleActivePosition","components":[{"name":"stakeholder_id","type":"bytes16","internalType":"bytes16"},{"name":"investment_amount","type":"uint256","internalType":"uint256"}]}],"stateMutability":"view"},{"type":"function","name":"issueConvertible","inputs":[{"name":"params","type":"tuple","internalType":"struct ConvertibleIssuanceParams","components":[{"name":"stakeholder_id","type":"bytes16","internalType":"bytes16"},{"name":"investment_amount","type":"uint256","internalType":"uint256"},{"name":"security_id","type":"bytes16","internalType":"bytes16"},{"name":"convertible_type","type":"string","internalType":"string"},{"name":"seniority","type":"uint256","internalType":"uint256"},{"name":"custom_id","type":"string","internalType":"string"},{"name":"security_law_exemptions_mapping","type":"string","internalType":"string"},{"name":"conversion_triggers_mapping","type":"string","internalType":"string"}]}],"outputs":[],"stateMutability":"nonpayable"},{"type":"event","name":"TxCreated","inputs":[{"name":"txType","type":"uint8","indexed":false,"internalType":"enum TxType"},{"name":"txData","type":"bytes","indexed":false,"internalType":"bytes"}],"anonymous":false},{"type":"error","name":"AccessControlUnauthorized","inputs":[{"name":"account","type":"address","internalType":"address"},{"name":"role","type":"bytes32","internalType":"bytes32"}]},{"type":"error","name":"AccessControlUnauthorizedOrInvestor","inputs":[{"name":"account","type":"address","internalType":"address"}]},{"type":"error","name":"InvalidAmount","inputs":[]},{"type":"error","name":"NoStakeholder","inputs":[{"name":"stakeholder_id","type":"bytes16","internalType":"bytes16"}]}],"bytecode":{"object":"0x608060405234801561001057600080fd5b50610741806100206000396000f3fe608060405234801561001057600080fd5b50600436106100365760003560e01c80638542cc7f1461003b578063e9f4a22814610050575b600080fd5b61004e61004936600461055d565b61008c565b005b61006361005e3660046105a0565b61030d565b6040805182516001600160801b0319168152602092830151928101929092520160405180910390f35b7f2031468f0c30f7087de4da9398818763b546d7f89935fa65485c24ff1df26bf36100b633610436565b61010057604051633cea3dfb60e11b81523360048201527f97667070c54ef182b0f5858b034beac1b6f3089aa2d3188bb1e8929f4fa9b92960248201526044015b60405180910390fd5b61011561011060208401846105a0565b610473565b61012282602001356104fc565b604080518082019091528061013a60208501856105a0565b6001600160801b031916815260208481013591015260118201600061016560608601604087016105a0565b6001600160801b03199081168252602080830193909352604090910160009081208451815460809190911c9316929092178255928201516001909101556010830191906101b4908501856105a0565b6001600160801b031916815260208101919091526040908101600020906101e190606085019085016105a0565b8154600180820184556000938452602093849020600283040180546001600160801b03929093166010026101000a9182021990921660809390931c0291909117905561022f908301836105a0565b60128201600061024560608601604087016105a0565b6001600160801b0319908116825260208083019390935260409091016000908120805490921660809490941c939093179055610283908401846105a0565b602084013561029860608601604087016105a0565b6102a560608701876105ca565b6102b260e08901896105ca565b60808a01356102c460c08c018c6105ca565b6102d160a08e018e6105ca565b6040516020016102ec9c9b9a99989796959493929190610641565b6040516020818303038152906040529050610308600a82610520565b505050565b604080518082018252600080825260208083018290526001600160801b031985811683527f2031468f0c30f7087de4da9398818763b546d7f89935fa65485c24ff1df26c048252918490208451808601909552805460801b909216845260019091015490830152907f2031468f0c30f7087de4da9398818763b546d7f89935fa65485c24ff1df26bf3906103a033610436565b806103d957503360009081527f5b8426ad6b46b2b80795b73723cafbcfb6f2e137b2c69c0c73ffc6754f1a64f5602052604090205460ff165b156103e5579392505050565b336000908152601983016020526040902054815160809190911b906001600160801b031980831691161461042e5760405163ad41016d60e01b81523360048201526024016100f7565b509392505050565b6001600160a01b031660009081527f20a65b27cef39f8cbee4f7fb947dec892749a5832be62c5137636d27b859f46d602052604090205460ff1690565b6001600160801b0319811660009081527f2031468f0c30f7087de4da9398818763b546d7f89935fa65485c24ff1df26bfb60205260408120547f2031468f0c30f7087de4da9398818763b546d7f89935fa65485c24ff1df26bf391036104f85760405163b4586dfb60e01b81526001600160801b0319831660048201526024016100f7565b5050565b8060000361051d5760405163162908e360e11b815260040160405180910390fd5b50565b7f88aa35e399ceb8d6b2e810abb3df607c140128e7c089c428f212598bda6a7eb782826040516105519291906106cd565b60405180910390a15050565b60006020828403121561056f57600080fd5b813567ffffffffffffffff81111561058657600080fd5b8201610100818503121561059957600080fd5b9392505050565b6000602082840312156105b257600080fd5b81356001600160801b03198116811461059957600080fd5b6000808335601e198436030181126105e157600080fd5b83018035915067ffffffffffffffff8211156105fc57600080fd5b60200191503681900382131561061157600080fd5b9250929050565b81835281816020850137506000828201602090810191909152601f909101601f19169091010190565b60006001600160801b0319808f1683528d6020840152808d16604084015250610100606083015261067761010083018b8d610618565b828103608084015261068a818a8c610618565b90508760a084015282810360c08401526106a5818789610618565b905082810360e08401526106ba818587610618565b9f9e505050505050505050505050505050565b6000600f84106106ed57634e487b7160e01b600052602160045260246000fd5b8382526020604081840152835180604085015260005b8181101561071f57858101830151858201606001528201610703565b506000606082860101526060601f19601f83011685010192505050939250505056","linkReferences":{}},"methodIdentifiers":{"getConvertiblePosition(bytes16)":"e9f4a228","issueConvertible((bytes16,uint256,bytes16,string,uint256,string,string,string))":"8542cc7f"},"id":55}