{"abi":[{"type":"function","name":"addAdmin","inputs":[{"name":"addr","type":"address","internalType":"address"}],"outputs":[],"stateMutability":"nonpayable"},{"type":"function","name":"addOperator","inputs":[{"name":"addr","type":"address","internalType":"address"}],"outputs":[],"stateMutability":"nonpayable"},{"type":"function","name":"getRoleAdmin","inputs":[{"name":"role","type":"bytes32","internalType":"bytes32"}],"outputs":[{"name":"","type":"bytes32","internalType":"bytes32"}],"stateMutability":"view"},{"type":"function","name":"getRoleMember","inputs":[{"name":"role","type":"bytes32","internalType":"bytes32"},{"name":"index","type":"uint256","internalType":"uint256"}],"outputs":[{"name":"","type":"address","internalType":"address"}],"stateMutability":"view"},{"type":"function","name":"getRoleMemberCount","inputs":[{"name":"role","type":"bytes32","internalType":"bytes32"}],"outputs":[{"name":"","type":"uint256","internalType":"uint256"}],"stateMutability":"view"},{"type":"function","name":"grantRole","inputs":[{"name":"role","type":"bytes32","internalType":"bytes32"},{"name":"account","type":"address","internalType":"address"}],"outputs":[],"stateMutability":"nonpayable"},{"type":"function","name":"hasRole","inputs":[{"name":"role","type":"bytes32","internalType":"bytes32"},{"name":"account","type":"address","internalType":"address"}],"outputs":[{"name":"","type":"bool","internalType":"bool"}],"stateMutability":"view"},{"type":"function","name":"removeAdmin","inputs":[{"name":"addr","type":"address","internalType":"address"}],"outputs":[],"stateMutability":"nonpayable"},{"type":"function","name":"removeOperator","inputs":[{"name":"addr","type":"address","internalType":"address"}],"outputs":[],"stateMutability":"nonpayable"},{"type":"function","name":"renounceRole","inputs":[{"name":"role","type":"bytes32","internalType":"bytes32"}],"outputs":[],"stateMutability":"nonpayable"},{"type":"function","name":"revokeRole","inputs":[{"name":"role","type":"bytes32","internalType":"bytes32"},{"name":"account","type":"address","internalType":"address"}],"outputs":[],"stateMutability":"nonpayable"},{"type":"event","name":"RoleAdminChanged","inputs":[{"name":"role","type":"bytes32","indexed":true,"internalType":"bytes32"},{"name":"previousAdminRole","type":"bytes32","indexed":true,"internalType":"bytes32"},{"name":"newAdminRole","type":"bytes32","indexed":true,"internalType":"bytes32"}],"anonymous":false},{"type":"event","name":"RoleGranted","inputs":[{"name":"role","type":"bytes32","indexed":true,"internalType":"bytes32"},{"name":"account","type":"address","indexed":true,"internalType":"address"},{"name":"sender","type":"address","indexed":true,"internalType":"address"}],"anonymous":false},{"type":"event","name":"RoleRevoked","inputs":[{"name":"role","type":"bytes32","indexed":true,"internalType":"bytes32"},{"name":"account","type":"address","indexed":true,"internalType":"address"},{"name":"sender","type":"address","indexed":true,"internalType":"address"}],"anonymous":false},{"type":"error","name":"EnumerableSet__IndexOutOfBounds","inputs":[]},{"type":"error","name":"UintUtils__InsufficientPadding","inputs":[]}],"bytecode":{"object":"0x608060405234801561001057600080fd5b50610a8b806100206000396000f3fe608060405234801561001057600080fd5b50600436106100a95760003560e01c80639010d07c116100715780639010d07c1461012257806391d148541461014d5780639870d7fe14610170578063ac8a584a14610183578063ca15c87314610196578063d547741f146101a957600080fd5b80631785f53c146100ae578063248a9ca3146100c35780632f2ff15d146100e957806370480275146100fc5780638bb9c5bf1461010f575b600080fd5b6100c16100bc3660046108a3565b6101bc565b005b6100d66100d13660046108be565b610216565b6040519081526020015b60405180910390f35b6100c16100f73660046108d7565b610227565b6100c161010a3660046108a3565b610248565b6100c161011d3660046108be565b610296565b610135610130366004610903565b61029f565b6040516001600160a01b0390911681526020016100e0565b61016061015b3660046108d7565b6102b2565b60405190151581526020016100e0565b6100c161017e3660046108a3565b6102be565b6100c16101913660046108a3565b61030c565b6100d66101a43660046108be565b61035a565b6100c16101b73660046108d7565b610365565b6101c4610381565b6101e95760405162461bcd60e51b81526004016101e090610925565b60405180910390fd5b6102137fdf8b4c520ffe197c5343c6f5aec59570151ef9a492f2c624fd45ddde6135ec42826103b2565b50565b600061022182610414565b92915050565b61023082610414565b61023981610436565b6102438383610440565b505050565b610250610381565b61026c5760405162461bcd60e51b81526004016101e090610925565b6102137fdf8b4c520ffe197c5343c6f5aec59570151ef9a492f2c624fd45ddde6135ec4282610440565b610213816104a2565b60006102ab83836104ac565b9392505050565b60006102ab83836104d1565b6102c6610381565b6102e25760405162461bcd60e51b81526004016101e090610925565b6102137f523a704056dcd17bcf83bed8b68c59416dac1119be77755efe3bde0a64e46e0c82610440565b610314610381565b6103305760405162461bcd60e51b81526004016101e090610925565b6102137f523a704056dcd17bcf83bed8b68c59416dac1119be77755efe3bde0a64e46e0c826103b2565b6000610221826104f6565b61036e82610414565b61037781610436565b61024383836103b2565b60006103ad7fdf8b4c520ffe197c5343c6f5aec59570151ef9a492f2c624fd45ddde6135ec42336104d1565b905090565b6000828152600080516020610a6b833981519152602052604090206103d7908261051a565b5060405133906001600160a01b0383169084907ff6391f5c32d9c69d2a47ea670b442974b53935d1edc7fd64eb21e047a839171b90600090a45050565b6000908152600080516020610a6b833981519152602052604090206002015490565b610213813361052f565b6000828152600080516020610a6b833981519152602052604090206104659082610595565b5060405133906001600160a01b0383169084907f2f8788117e7eff1d82e926ec794901d17c78024a50270940304540a733656f0d90600090a45050565b61021381336103b2565b6000828152600080516020610a6b833981519152602052604081206102ab90836105aa565b6000828152600080516020610a6b833981519152602052604081206102ab90836105b6565b6000818152600080516020610a6b83398151915260205260408120610221906105d8565b60006102ab836001600160a01b0384166105e2565b61053982826104d1565b6105915761054f816001600160a01b03166106a7565b61055a8360206106b9565b60405160200161056b929190610980565b60408051601f198184030181529082905262461bcd60e51b82526101e0916004016109f5565b5050565b60006102ab836001600160a01b0384166107f8565b60006102ab838361083b565b6001600160a01b038116600090815260018301602052604081205415156102ab565b6000610221825490565b600081815260018301602052604081205480156106a05783546000908590600019810190811061061457610614610a28565b906000526020600020015490508085600001600184038154811061063a5761063a610a28565b600091825260208083209091019290925591825260018601905260409020819055835484908061066c5761066c610a3e565b6001900381819060005260206000200160009055905583600101600084815260200190815260200160002060009055600191505b5092915050565b60606102216001600160a01b03831660145b60011b600201606060008267ffffffffffffffff8111156106dc576106dc610a54565b6040519080825280601f01601f191660200182016040528015610706576020820181803683370190505b509050600360fc1b8160008151811061072157610721610a28565b60200101906001600160f81b031916908160001a905350600f60fb1b8160018151811061075057610750610a28565b60200101906001600160f81b031916908160001a9053505b60028311156107d957600019909201916f181899199a1a9b1b9c1cb0b131b232b360811b600f8516601081106107a0576107a0610a28565b1a60f81b8184815181106107b6576107b6610a28565b60200101906001600160f81b031916908160001a905350600484901c9350610768565b83156102ab576040516355a04ff160e11b815260040160405180910390fd5b6000818152600183016020526040812054610221575081546001808201845560008481526020808220909301849055845493815293810190915260409092205590565b8154600090821061085f5760405163e637bf3b60e01b815260040160405180910390fd5b82600001828154811061087457610874610a28565b9060005260206000200154905092915050565b80356001600160a01b038116811461089e57600080fd5b919050565b6000602082840312156108b557600080fd5b6102ab82610887565b6000602082840312156108d057600080fd5b5035919050565b600080604083850312156108ea57600080fd5b823591506108fa60208401610887565b90509250929050565b6000806040838503121561091657600080fd5b50508035926020909101359150565b60208082526018908201527f446f6573206e6f7420686176652061646d696e20726f6c650000000000000000604082015260600190565b60005b8381101561097757818101518382015260200161095f565b50506000910152565b7f416363657373436f6e74726f6c3a206163636f756e74200000000000000000008152600083516109b881601785016020880161095c565b7001034b99036b4b9b9b4b733903937b6329607d1b60179184019182015283516109e981602884016020880161095c565b01602801949350505050565b6020815260008251806020840152610a1481604085016020870161095c565b601f01601f19169190910160400192915050565b634e487b7160e01b600052603260045260246000fd5b634e487b7160e01b600052603160045260246000fd5b634e487b7160e01b600052604160045260246000fdfed3889cc5458b268d0544e5534672df1296288ca3f93cbd39bd6f497a5c622811","linkReferences":{}},"methodIdentifiers":{"addAdmin(address)":"70480275","addOperator(address)":"9870d7fe","getRoleAdmin(bytes32)":"248a9ca3","getRoleMember(bytes32,uint256)":"9010d07c","getRoleMemberCount(bytes32)":"ca15c873","grantRole(bytes32,address)":"2f2ff15d","hasRole(bytes32,address)":"91d14854","removeAdmin(address)":"1785f53c","removeOperator(address)":"ac8a584a","renounceRole(bytes32)":"8bb9c5bf","revokeRole(bytes32,address)":"d547741f"},"id":57}